:100000000C94D2000C94EF000C94EF000C94EF00D1
:100010000C94EF000C94EF000C94EF000C94560934
:100020000C94EF000C94EF000C94EF000C94F10092
:100030000C94EF000C94EF000C94EF000C94EF0084
:100040000C94EF000C94EF000C94EF000C94EF0074
:100050000C94EF000C94EF000C94EF000C94EF0064
:100060000C94EF000C94EF00808386898C8F92951E
:10007000989C9FA2A5A8ABAEB0B3B6B9BCBFC1C493
:10008000C7C9CCCED1D3D5D8DADCDEE0E2E4E6E8ED
:10009000EAECEDEFF0F2F3F5F6F7F8F9FAFBFCFC19
:1000A000FDFEFEFFFFFFFFFFFFFFFFFFFFFFFEFE66
:1000B000FDFCFCFBFAF9F8F7F6F5F3F2F0EFEDECE6
:1000C000EAE8E6E4E2E0DEDCDAD8D5D3D1CECCC98A
:1000D000C7C4C1BFBCB9B6B3B0AEABA8A5A29F9C04
:1000E0009895928F8C898683807C797673706D6AFF
:1000F0006763605D5A5754514F4C494643403E3BFD
:10010000383633312E2C2A272523211F1D1B191782
:10011000151312100F0D0C0A090807060504030336
:1001200002010100000000000000000000000101C9
:100130000203030405060708090A0C0D0F10121329
:100140001517191B1D1F212325272A2C2E31333665
:10015000383B3E404346494C4F5154575A5D6063CB
:10016000676A6D707376797CFF8080808080808084
:100170008080808080E08094FC7C3C1C0C0484C4E3
:10018000E4F48080808C8032806088A8904028D001
:10019000082078B048E0A0F068D85010C03018703F
:1001A00098B8C80011241FBECFEFD8E0DEBFCDBF86
:1001B00011E0A0E0B1E0E2E0F3E302C005900D92AF
:1001C000A634B107D9F712E0A6E4B1E001C01D9250
:1001D000A930B107E1F70E94450B0C947F190C94EC
:1001E00000001F920F920FB60F9211244F935F934E
:1001F0006F937F938F939F93AF93BF93EF93FF93EF
:10020000F894809149018130B9F5569A8BB190E408
:1002100089278BB94091A8015091A9016091AA0149
:100220007091AB018091BC019091BD01A091BE0184
:10023000B091BF01840F951FA61FB71F8093A8011F
:100240009093A901A093AA01B093AB018091A8015A
:100250009091A901A091AA01B091AB018B2F992790
:10026000AA27BB2780937201E0917201F0E0E85960
:10027000FF4FE491E7BD02C056985E987894FF91D5
:10028000EF91BF91AF919F918F917F916F915F910E
:100290004F910F900FBE0F901F901895682F80EB15
:1002A00094E070E00E94E41470937E0160937D01FD
:1002B0000895813041F510924C0110924B0110923B
:1002C0004E0110924D011092500110924F01109268
:1002D0005201109251011092540110925301109248
:1002E0005601109255011092580110925701109228
:1002F0005A011092590110925C0110925B01109208
:100300005E0110925D014B9911C080914B0190915B
:100310004C018530910528F4019690934C0180930F
:100320004B011092500110924F0110C080914F016B
:10033000909150018530910528F4019690935001D9
:1003400080934F0110924C0110924B014C9911C0B7
:1003500080914D0190914E018530910528F40196D0
:1003600090934E0180934D011092520110925101D1
:1003700010C080915101909152018530910528F46F
:100380000196909352018093510110924E01109268
:100390004D0180914B0190914C01059718F081E03F
:1003A0008093EE0180914F0190915001059710F0DC
:1003B0001092EE0180914D0190914E01059718F039
:1003C00081E08093CC018091510190915201059779
:1003D00010F01092CC0180915701909158014A99E8
:1003E00008C04D9906C0019690935801809357011B
:1003F00015C09C01255031092F3E314010F481E099
:1004000004C0843F914020F082E08093D20102C07A
:100410001092D2011092580110925701809153010D
:10042000909154014A9906C001969093540180938B
:10043000530115C09C01255031092F3E314010F465
:1004400081E004C0843F914020F082E08093D3019A
:1004500002C01092D3011092540110925301809166
:100460005501909156014D9906C001969093560101
:100470008093550115C09C01255031092F3E314014
:1004800010F481E004C0843F914020F082E080932A
:10049000D10102C01092D101109256011092550163
:1004A0008091590190915A01339906C00196909319
:1004B0005A018093590115C09C01255031092F3EE6
:1004C000314010F481E004C0843F914020F082E08C
:1004D0008093E50102C01092E50110925A0110923A
:1004E0005901189911C080915B0190915C01853090
:1004F000910528F4019690935C0180935B01109222
:10050000600110925F0110C080915F0190916001C5
:100510008530910528F401969093600180935F01E6
:1005200010925C0110925B014F9911C080915D01A6
:1005300090915E018530910528F4019690935E01BB
:1005400080935D01109262011092610110C0809150
:100550006101909162018530910528F40196909394
:1005600062018093610110925E0110925D018091A1
:100570005B0190915C01059718F081E080936D011B
:1005800080915F0190916001059710F010926D01CC
:1005900080915D0190915E01059718F081E0809354
:1005A00003028091610190916201059710F0109211
:1005B00003020895FF920F931F93CF93DF938C0153
:1005C000EB01F42E0E946416B8018091FD01909118
:1005D000FE010E945D168091D80180937C0180917C
:1005E000E6019091E701A091E801B091E9018093C3
:1005F000C0019093C101A093C201B093C301809147
:10060000AC018093C4018091C6019091C701909381
:10061000DE018093DD01D093C701C093C6018091B4
:10062000F80180930402F092F801DE0129EB3DE825
:1006300046E050E00E94B5146093BC017093BD0188
:100640008093BE019093BF016F2D80EB94E070E02A
:100650000E94E41470937E0160937D0181E0809399
:10066000D80182E08093AC01DF91CF911F910F916F
:10067000FF900895CF93DF9380917A0084688093F0
:100680007A0082E680937C008AE090E00E94261542
:10069000D82FC92F80917A00806480937A0080914E
:1006A0007A0086FDFCCF2091790081EA289F900195
:1006B0001124832F90E06AE070E00E94D0149F9391
:1006C0008F937F936F9321E131E03F932F93CF93EB
:1006D000DF930E946E166091C6017091C701409130
:1006E000F8018D2F9C2F0E94DA028DB79EB70896D5
:1006F0000FB6F8949EBF0FBE8DBF8D2F9C2FDF913C
:10070000CF910C94C1158F929F92AF92BF92CF92CE
:10071000DF92EF92FF92CF93DF938FE090E00E9401
:100720002615D82FC92F8091E401823029F08091BD
:10073000E401813009F073C08091DA019091DB010E
:1007400097FF39C08091DA019091DB012091DA01A5
:100750003091DB0168EE73E00E94E4146AE070E01F
:100760000E94E41477FF03C07195619571097F932E
:100770006F93C90168EE73E00E94E414CB0164E654
:1007800070E00E94E41497FF03C091958195910950
:100790009F938F9387E191E09F938F93CF93DF9304
:1007A0000E946E168DB79EB708960FB6F8949EBF3E
:1007B0000FBE8DBF76C08091DA019091DB01209150
:1007C000DA013091DB0168EE73E00E94E4146AE024
:1007D00070E00E94E41477FF03C071956195710980
:1007E0007F936F93C90168EE73E00E94E414CB011C
:1007F00064E670E00E94E4149F938F9388E191E097
:100800009F938F93CF93DF930E946E168DB79EB701
:1008100008960FB6F8949EBF0FBE8DBF42C0609180
:10082000F4017091F5018091F6019091F7018090AB
:10083000F4019090F501A090F601B090F70158EE08
:10084000C52E53E0D52EE12CF12CA70196010E9474
:10085000F8142AE030E040E050E00E94F8143F93A2
:100860002F93C501B401A70196010E94F814CA0193
:10087000B90124E630E040E050E00E94F8147F9394
:100880006F9382E291E09F938F93CF93DF930E94C7
:100890006E168DB79EB708960FB6F8949EBF0FBE22
:1008A0008DBF6091C6017091C7014091F8018D2FF5
:1008B0009C2F0E94DA028D2F9C2FDF91CF91FF9009
:1008C000EF90DF90CF90BF90AF909F908F900C945F
:1008D000C1152D9A29989EBD0DB407FEFDCF8EBD82
:1008E0000DB407FEFDCF299A0895813019F488E3ED
:1008F00098E202C088E190E20C946904FF920F93A1
:100900001F93CF93DF93F22E413019F4E0E0F0E82B
:1009100002C0E0E0F0E48B019C011F732227332723
:100920000E0F1F1FAB01BC01AEE076956795579582
:100930004795AA95D1F75F7366277727EF01C40F14
:10094000D51F81E0F81204C088E191E20E94690499
:10095000C8010E946904CE010E94690481E0F81276
:100960000DC080E090EC0E94690488E190E2DF9184
:10097000CF911F910F91FF900C946904DF91CF915B
:100980001F910F91FF900895CF938091AC01883013
:1009900009F441C29091D201923039F491E09093E0
:1009A000D8018093C40183E038C09091D301913085
:1009B00041F48093C40184E08093AC019093D8010A
:1009C0002EC08091D301823029F448E250E06CE2DD
:1009D00070E00FC08091D101813019F40E9483032F
:1009E0001EC08091D101823071F548E250E064E090
:1009F00070E08FE791E00E946F186FE771E08091DF
:100A0000FD019091FE010E945D1681E08093D80166
:100A10008091AC018093C40186E08093AC01809109
:100A20006E0190916F01A0917001B0917101845D90
:100A30009E4FAF4FBF4F8093DF019093E001A09393
:100A4000E101B093E2018091E501813009F082C0BB
:100A50009091E401911154C090910401913041F5BD
:100A6000109204018BE190E09093030180930201C6
:100A700085E08093010180916E0190916F01A091BA
:100A80007001B0917101845D9E4FAF4FBF4F809355
:100A9000DF019093E001A093E101B093E20181E0D6
:100AA0000E94590149E160E971E08CE291E0B1C135
:100AB0008093040186E890E0909303018093020103
:100AC00089E18093010180916E0190916F01A09165
:100AD0007001B0917101845D9E4FAF4FBF4F809305
:100AE000DF019093E001A093E101B093E20181E086
:100AF0000E94590149E164E873E08EE291E089C106
:100B000090914A01911114C080934A016091CD01E6
:100B10007091CE018091CF019091D00120E040E012
:100B20000E947E0449E160E971E080E391E071C1D7
:100B300010924A016091C8017091C9018091CA0167
:100B40009091CB0120E040E00E947E0449E160E901
:100B500071E08CC08091E501823009F05CC1809128
:100B6000E4018F5F8093E4018091E401833010F011
:100B70001092E4018091E401813021F0823009F08B
:100B8000F0C077C0399A109204018BE190E0909305
:100B900003018093020185E0809301018091B601F9
:100BA0009091B701A091B801B091B9018093C801AB
:100BB0009093C901A093CA01B093CB018091B60173
:100BC0009091B701A091B801B091B9018093CD0186
:100BD0009093CE01A093CF01B093D0018091D40126
:100BE0009091D501A091D601B091D7018093780161
:100BF00090937901A0937A01B0937B016091C80131
:100C00007091C9018091CA019091CB0120E040E030
:100C10000E947E046091D4017091D5018091D6012B
:100C20009091D70120E041E00E947E0410924A0199
:100C30001092DB011092DA0181E00E94590180914B
:100C40006E0190916F01A0917001B0917101845D6E
:100C50009E4FAF4FBF4F8093DF019093E001A09371
:100C6000E101B093E20149E164E873E082E391E0DD
:100C7000D0C0389AC1E0C093040186E890E0909318
:100C800003018093020189E1809301018091B60103
:100C90009091B701A091B801B091B9018093C801BA
:100CA0009093C901A093CA01B093CB018091B60182
:100CB0009091B701A091B801B091B9018093CD0195
:100CC0009093CE01A093CF01B093D0018091D40135
:100CD0009091D501A091D601B091D7018093780170
:100CE00090937901A0937A01B0937B016091CD013B
:100CF0007091CE018091CF019091D00120E040E031
:100D00000E947E046091D4017091D5018091D6013A
:100D10009091D70120E041E00E947E04C0934A01F7
:100D20001092DB011092DA0181E00E94590180915A
:100D30006E0190916F01A0917001B0917101845D7D
:100D40009E4FAF4FBF4F8093DF019093E001A09380
:100D5000E101B093E20149E164E873E084E391E0EA
:100D600058C0399841983898409881E080930401A0
:100D700086E890E0909303018093020189E18093DB
:100D800001018091780190917901A0917A01B0914F
:100D90007B018093D4019093D501A093D601B093A9
:100DA000D7016091B6017091B7018091B80190911F
:100DB000B90120E040E00E947E046091D40170916E
:100DC000D5018091D6019091D70120E041E00E94A9
:100DD0007E041092DB011092DA0181E00E94590139
:100DE00080916E0190916F01A0917001B09171019D
:100DF000845D9E4FAF4FBF4F8093DF019093E00122
:100E0000A093E101B093E20149E164E873E086E375
:100E100091E00E94DA0280916D01811102C0C0E070
:100E200001C0C2E0809103028111CF5F8091630114
:100E3000C81709F437C286958170809363019C2F8F
:100E40009170981709F4FAC08091E401813021F47F
:100E500080914A01882361F08091E401823021F47D
:100E600080914A01813021F08091E40181111AC200
:100E70008091F4019091F501A091F601B091F701F4
:100E8000813C9F4CAA46B10508F4CFC08091E40193
:100E9000813009F58091C8019091C901A091CA01E2
:100EA000B091CB012091020130910301821B930B81
:100EB000A109B1098093C8019093C901A093CA0107
:100EC000B093CB018091DA019091DB012091010177
:100ED000821B9109F9C08091E4018230B9F58091BB
:100EE000D4019091D501A091D601B091D701409144
:100EF00002015091030160E070E0841B950BA60B8A
:100F0000B70B8093D4019093D501A093D601B093F1
:100F1000D7018091CD019091CE01A091CF01B091E8
:100F2000D001841B950BA60BB70B8093CD0190933A
:100F3000CE01A093CF01B093D0018091DA019091BE
:100F4000DB0120910101821B910906C18091AC0156
:100F5000883071F58091B6019091B701A091B801E8
:100F6000B091B9014B97A109B1098093B601909353
:100F7000B701A093B801B093B9016091B601709127
:100F8000B7018091B8019091B90120E040E00E9442
:100F90007E044091B6015091B7016091B801709103
:100FA000B90180E090E00E949B18F999FECF63C1DF
:100FB0008091D4019091D501A091D601B091D70133
:100FC000409102015091030160E070E0841B950B99
:100FD000A60BB70B8093D4019093D501A093D601B3
:100FE000B093D7018091B6019091B701A091B8015B
:100FF000B091B901841B950BA60BB70B8093B6017A
:101000009093B701A093B801B093B9018091F40116
:101010009091F501A091F601B091F70120910101A5
:10102000821B9109A109B10912C181E00E945901F5
:1010300049E164E873E08CE391E032C18091E4011E
:10104000813021F480914A01882361F08091E4018C
:10105000823021F480914A01813021F08091E401B5
:10106000811120C18091F4019091F501A091F601C8
:10107000B091F701803A9346AF46B10508F008C138
:101080008091E401813069F58091C8019091C90196
:10109000A091CA01B091CB012091020130910301CE
:1010A000820F931FA11DB11D8093C8019093C901A8
:1010B000A093CA01B093CB018091DA019091DB013A
:1010C00020910101820F911D9093DB018093DA0141
:1010D0006091C8017091C9018091CA019091CB01C2
:1010E000C6C08091E401823009F043C08091D401F0
:1010F0009091D501A091D601B091D7014091020104
:101100005091030160E070E0840F951FA61FB71F88
:101110008093D4019093D501A093D601B093D701C9
:101120008091CD019091CE01A091CF01B091D001DD
:10113000840F951FA61FB71F8093CD019093CE01FA
:10114000A093CF01B093D0018091DA019091DB019F
:1011500020910101820F911D9093DB018093DA01B0
:101160006091CD017091CE018091CF019091D0011D
:101170007EC08091AC01883071F58091B60190916C
:10118000B701A091B801B091B9014B96A11DB11D55
:101190008093B6019093B701A093B801B093B901C1
:1011A0006091B6017091B7018091B8019091B90139
:1011B00020E040E00E947E044091B6015091B701CA
:1011C0006091B8017091B90180E090E00E949B1895
:1011D000F999FECF50C08091D4019091D501A09192
:1011E000D601B091D701409102015091030160E016
:1011F00070E0840F951FA61FB71F8093D4019093B2
:10120000D501A093D601B093D7018091B6019091FA
:10121000B701A091B801B091B901840F951FA61F25
:10122000B71F8093B6019093B701A093B801B09314
:10123000B9018091F4019091F501A091F601B0916E
:10124000F70120910101820F911DA11DB11D809315
:10125000F4019093F501A093F601B093F70160912A
:10126000B6017091B7018091B8019091B90120E069
:1012700040E00E947E046091D4017091D50180917C
:10128000D6019091D70120E041E00E947E040AC07F
:1012900081E00E94590149E164E873E088E391E04C
:1012A0000E94DA02C0936301CF9108951F920F92BA
:1012B0000FB60F9211242F933F934F935F936F9329
:1012C0007F938F939F93AF93BF93EF93FF9340913F
:1012D0007401509175016091760170917701809150
:1012E000F9019091FA01A091FB01B091FC018417E2
:1012F0009507A607B707A8F44091740150917501AE
:1013000060917601709177018091EA019091EB01F3
:10131000A091EC01B091ED01481759076A077B07CE
:1013200020F080914801813011F42E9A01C02E984E
:10133000409174015091750160917601709177012F
:101340008091FF0190910002A0910102B0910202F0
:10135000481759076A077B07F8F4409174015091C8
:10136000750160917601709177018091B201909141
:10137000B301A091B401B091B50184179507A607F8
:10138000B70750F488E198E20E9469048091470110
:10139000813031F42F9A05C088E190E20E946904FF
:1013A0002F988091E401882369F08091E4018130D5
:1013B00019F4419A409806C08091E401823011F4FA
:1013C000409A419880E00E94590180917401909167
:1013D0007501A0917601B09177010196A11DB11D13
:1013E0008093740190937501A0937601B093770177
:1013F000FF91EF91BF91AF919F918F917F916F91ED
:101400005F914F913F912F910F900FBE0F901F90C2
:101410001895813019F488E198E202C088E190E2E1
:101420000C9469049B01AC0169EB7DE886E090E0D7
:101430000E94C0146093BC017093BD018093BE01F3
:101440009093BF0108951092B9008AE08093B8008C
:1014500084E08093BC000895F89481E884BD21E085
:1014600025BD8AE0809381001092800083E690E0A1
:10147000909389008093880082E080936F0080932E
:10148000B00083E08093B10080917000826080930F
:10149000700089EF8093B300569A269A279A39985C
:1014A0004198389840983C9A449A3D9A459A539866
:1014B0005B9A54985C9A52985A9A55985D9A2098DB
:1014C000289A57985F9A3B98439A84B18E6284B960
:1014D00089E58CBD8DB58EB520937C012093D80114
:1014E0002093B1011092740110927501109276014F
:1014F0001092770180E090E00E9487186093B60117
:101500007093B7018093B8019093B90189EC95EE7F
:10151000AFE3B2E08093D4019093D501A093D601BC
:10152000B093D70180EF94E4ABE6B0E08093F40190
:101530009093F501A093F601B093F7016091B60185
:101540007091B7018091B8019091B90121E040E01C
:101550000E947E046091B6017091B7018091B8013C
:101560009091B90120E040E00E947E046091D40196
:101570007091D5018091D6019091D70120E041E092
:101580000E947E0488E592E09093C7018093C60193
:1015900088E999E2ACE5BFE08093BC019093BD017E
:1015A000A093BE01B093BF011092E4011092E30139
:1015B0002E9A84EF91E0EFE9FFE03197F1F700C058
:1015C00000000197C1F785E590E00E947F188093A5
:1015D000F801682F80EB94E070E00E94E4147093AF
:1015E0007E0160937D0184E590E00E947F18811167
:1015F00004C081E08093AC0102C01092AC018091E4
:10160000CC01813031F49091EE01911102C08093B0
:10161000AC01339906C088E08093AC0181E08093EF
:10162000D8012F980E94230A2E987894089584EA6E
:101630008093BC008091BC0087FFFCCF089584E9B3
:101640008093BC0008958093BB0084E88093BC0025
:101650008091BC0087FFFCCF089584EC8093BC0090
:101660008091BC0087FFFCCF8091BB00089584E887
:101670008093BC008091BC0087FFFCCF8091BB00B1
:1016800008958091B900887F0895CF93DF931F92CA
:10169000CDB7DEB789E290E00E9426158093FD0168
:1016A0009093FE0119E2DC01212F1D922A95E9F7A2
:1016B000809364019093650189E290E00E94261571
:1016C0008093660190936701DC011D921A95E9F7FA
:1016D0000E942C0A8091AC016091C6017091C701F3
:1016E00044E1883019F48AE391E002C08EE391E08E
:1016F0000E94DA02CC24CA94DC2C7601B7E0BB2E1F
:1017000014E1212E11E0312E00EB602E04E0702E4A
:1017100084E1582E95E0A92E29E0822E34E0932E04
:10172000F8948091740190917501A0917601B09127
:10173000770180936E0190936F01A0937001B09335
:10174000710178941091AC01133009F4B3C428F4FA
:10175000113079F008F0A3C3F0C0153009F4A0C629
:1017600008F454C5163009F41EC71830C9F60C9495
:101770008614109373010E94C4048091D8018730AD
:10178000B9F18C3009F49CC0813051F610924701B8
:1017900010924901109248019091EE01913029F583
:1017A00040916E0150916F016091700170917101D3
:1017B0004E5F5F4F6F4F7F4F4093B2015093B30125
:1017C0006093B4017093B501C092FF01D092000202
:1017D000E0920102F0920202C092E601D092E7018B
:1017E000E092E801F092E901ACC48093D80198CF6F
:1017F0008091F4019091F501A091F601B091F7016B
:10180000813A9346AF46B10568F48091F401909116
:10181000F501A091F601B091F701803C9F4CAA46DA
:10182000B10538F410924701109249011092480115
:1018300006C010934701109349011093480180910D
:10184000EE01811134C08CE08093D80180916E014B
:1018500090916F01A0917001B09171018093E601A8
:101860009093E701A093E801B093E90140916E01E4
:1018700050916F01609170017091710148535F4FF9
:101880006F4F7F4F4093EA015093EB016093EC015F
:101890007093ED0140916E0150916F016091700164
:1018A000709171014E5F5F4F6F4F7F4F84C4C09244
:1018B000FF01D0920002E0920102F092020230CFCA
:1018C00010924701109249018091F4019091F50125
:1018D000A091F601B091F701813A9346AF46B10568
:1018E00068F48091F4019091F501A091F601B09116
:1018F000F701803C9F4CAA46B10518F410924801AC
:1019000002C01093480140916E0150916F016091A7
:101910007001709171018091E6019091E701A091B1
:10192000E801B091E901481759076A077B0708F4F5
:10193000F7CEF1E0F093D801F3CE109273010E943C
:10194000C4048091D801833009F428C130F4813077
:1019500059F0823009F0E4CEBBC0843009F486C16E
:101960008C3009F0DDCE68C2109247011092490117
:101970001092480180916E0190916F01A0917001C9
:10198000B09171018093EA019093EB01A093EC0177
:10199000B093ED018091EE01813051F49091CC0132
:1019A000911106C080937C0122E02093D8017DC074
:1019B0008091CC01813009F066C09091EE019111C7
:1019C00062C080937C0193E09093D8018093B10131
:1019D00040916E0150916F016091700170917101A1
:1019E00020917D0130917E01C901880F991F820FDE
:1019F000931F480F591F611D711D4093E6015093BD
:101A0000E7016093E8017093E90100916E01109184
:101A10006F0120917001309171010E5F1F4F2F4FA8
:101A20003F4F0093B2011093B3012093B401309360
:101A3000B501DB01CA010296A11DB11D8093FF0112
:101A400090930002A0930102B093020280916E0174
:101A500090916F01A0917001B09171018093F90193
:101A60009093FA01A093FB01B093FC0148535F4FA0
:101A70006F4F7F4F4093EA015093EB016093EC016D
:101A80007093ED014DCE8091EE018130E9F48091AB
:101A9000CC018130C9F48091B1018130A9F48093E7
:101AA0007C0182E08093D80183E08093B101409172
:101AB0006E0150916F016091700170917101809180
:101AC0007D0190917E0195CF91E09093D80128CE31
:101AD0008091F4019091F501A091F601B091F70188
:101AE000813A9346AF46B10568F48091F401909134
:101AF000F501A091F601B091F701803C9F4CAA46F8
:101B0000B10538F410924701109249011092480132
:101B100007C021E020934701209349012093480109
:101B200040916E0150916F0160917001709171014F
:101B30008091E6019091E701A091E801B091E9015F
:101B400084179507A607B707E8F482E080937C0125
:101B50009092D80140916E0150916F016091700197
:101B60007091710180917D0190917E01480F591F04
:101B7000611D711D4093E6015093E7016093E801F8
:101B80007093E9018091CC01813009F0C9CD809139
:101B9000B101813009F0C4CD83E065C08091F401CA
:101BA0009091F501A091F601B091F701813A934629
:101BB000AF46B10568F48091F4019091F501A091D0
:101BC000F601B091F701803C9F4CAA46B10538F46C
:101BD00010924701109249011092480107C021E07C
:101BE00020934701209349012093480180916E0181
:101BF00090916F01A0917001B09171014091E60147
:101C00005091E7016091E8017091E9014817590787
:101C10006A077B07E8F483E080937C019092D80107
:101C200040916E0150916F0160917001709171014E
:101C300080917D0190917E01480F591F611D711D9A
:101C40004093E6015093E7016093E8017093E90146
:101C50008091EE01813009F063CD8091B101813036
:101C600009F05ECD82E08093B1015ACD00916E0102
:101C700010916F0120917001309171014091E60146
:101C80005091E7016091E8017091E9014017510717
:101C90006207730708F08CC08091B101823079F43B
:101CA0008093D80140916E0150916F016091700155
:101CB0007091710180917D0190917E0116C08330F9
:101CC00009F05EC08093D80140916E0150916F0180
:101CD000609170017091710120917D0130917E01C0
:101CE000C901880F991F820F931F480F591F611D4B
:101CF000711D4093E6015093E7016093E8017093F2
:101D0000E90100916E0110916F01209170013091F5
:101D100071010E5F1F4F2F4F3F4F0093B201109381
:101D2000B3012093B4013093B5018A019B010E5F8A
:101D30001F4F2F4F3F4F0093FF011093000220933E
:101D400001023093020200916E0110916F01209107
:101D50007001309171010093F9011093FA01209301
:101D6000FB013093FC0148535F4F6F4F7F4F40930F
:101D7000EA015093EB016093EC017093ED0113C005
:101D800091E09093D80140916E0150916F01609164
:101D90007001709171014093E6015093E7016093E7
:101DA000E8017093E90190927C01A1E0A093B10158
:101DB0008091EE01813061F480917C01833041F4A7
:101DC0008091B101813021F4B2E0B093B1010FC034
:101DD0008091CC01813059F480917C01823039F4BA
:101DE0008091B101813019F483E08093B1011092A8
:101DF0004701109249014091F4015091F501609121
:101E0000F6017091F701413A53466F46710568F447
:101E10004091F4015091F5016091F6017091F70144
:101E2000403C5F4C6A46710518F41092480178CC2A
:101E300021E02093480174CC10924701109249018F
:101E400081E08093480100916E0110916F01209113
:101E50007001309171014091E6015091E70160916C
:101E6000E8017091E901401751076207730710F408
:101E70008093D80140916E0150916F016091700183
:101E800070917101445D5E4F6F4F7F4F4093DF0152
:101E90005093E0016093E1017093E20141CC8091A5
:101EA000D801843038F4823008F0ADC0813009F0B8
:101EB00037CC04C0873008F033CCDCC0A09164017B
:101EC000B09165018091FD019091FE01A817B907BD
:101ED00059F420916801211107C0EC91F0E0E85B12
:101EE000FE4FE491E0936801E0916801EE2309F46C
:101EF00059C080917D0190917E01E03819F0EF3F4B
:101F000009F50EC040916E0150916F016091700112
:101F1000709171019C01220F331F280F391F0DC0D2
:101F200040916E0150916F0160917001709171014B
:101F3000B89E9001B99E300D1124420F531F611DB0
:101F4000711DCEC340916E0150916F01609170017F
:101F500070917101E7FF15C09C01220F331F280FFC
:101F6000391F420F531F611D711D4093E6015093AD
:101F7000E7016093E8017093E90183E08093D80161
:101F80000FC0480F591F611D711D4093E60150930A
:101F9000E7016093E8017093E90192E09093D80122
:101FA000EE0FB9C361E471E00E945D168091FD01FE
:101FB0009091FE01909365018093640110926801F5
:101FC000A091DD01B091DE01B093C701A093C601DD
:101FD00029EB3DE846E050E00E94B5146093BC0157
:101FE0007093BD018093BE019093BF016091040284
:101FF0006093F801C30170E00E94E41470937E01C5
:1020000060937D0110C400916E0110916F012091C9
:102010007001309171014091E6015091E7016091AA
:10202000E8017091E9014017510762077307D0F486
:1020300040916E0150916F0160917001709171013A
:1020400080917D0190917E01480F591F611D711D86
:102050004093E6015093E7016093E8017093E90132
:102060009092D80110924701A1E0A0934901A0935A
:10207000480156CB00916E0110916F0120917001C3
:10208000309171014091E6015091E7016091E801C2
:102090007091E901401751076207730718F4B1E026
:1020A000B093D8011092470110924901E1E0E0930A
:1020B000480136CB8091D801873009F445C088307B
:1020C00009F482C0813009F02BCB40916E01509110
:1020D0006F0160917001709171014E5F5F4F6F4FA2
:1020E0007F4F4093B2015093B3016093B40170935A
:1020F000B501C092FF01D0920002E0920102F0927D
:102100000202C092E601D092E701E092E801F0926B
:10211000E90140916E0150916F01609170017091E1
:1021200071014093F9015093FA016093FB017093A0
:10213000FC01C092EA01D092EB01E092EC01F09236
:10214000ED01B092D801ECCAF1E0F0934701F093B1
:102150004901F09348018091EE01813069F080914E
:10216000CC01813049F08091D301813029F08091F8
:10217000D101813009F0D4CA28E02093D8014091E0
:102180006E0150916F01609170017091710148531F
:102190005F4F6F4F7F4F4093E6015093E70160938D
:1021A000E8017093E90140916E0150916F016091D7
:1021B0007001709171014093FF0150930002609390
:1021C000010270930202ACCA1092470110924901B9
:1021D00081E08093480100916E0110916F01209180
:1021E0007001309171014091E6015091E7016091D9
:1021F000E8017091E901041715072607370708F46D
:102200008FCA109248018093D80145C18091D801AE
:10221000893079F08A3009F442C0813009F038C140
:10222000A5E0B1E0B0936A01A09369018092D80162
:1022300077CA82E090E00E942615FC0190936C0121
:1022400080936B0111821082A0916901B0916A01A3
:102250008C91808340916E0150916F01609170016B
:10226000709171014056504F6F4F7F4F4093E60180
:102270005093E7016093E8017093E901BAE0B093ED
:10228000D8016091C6017091C7014091F801CF015A
:102290000E94DA0280916B0190916C01F6C084E19A
:1022A00090E00E942615482E809366019093670166
:1022B000E82FF92FDF01252D1D922A95E9F70091CE
:1022C0006E0110916F012091700130917101409168
:1022D000E6015091E7016091E8017091E90104176E
:1022E00015072607370708F0BDC01091D30111303C
:1022F000B1F481E00E945901E0916901F0916A0115
:10230000CF01019690936A018093690181818111C7
:1023100003C01093D801A9C08092D801B2C08091A7
:10232000D101813009F0ADC099830E945901E0913B
:102330006901F0916A0180819981833579F038F4DF
:102340008B3409F45DC0823509F09BC042C08635EC
:1023500009F44CC0873509F094C017C040916E0154
:1023600050916F0160917001709171014056504F12
:102370006F4F7F4F4093E6015093E7016093E80170
:102380007093E901A092AC0128C081E08093D8014C
:10239000809173018093AC018091F8011F928F931B
:1023A0003F922F929F934F920E946E166091C601AA
:1023B0007091C7014091F801809166019091670189
:1023C0000E94DA020F900F900F900F900F900F90D5
:1023D00058C01092D801B092AC016091C6017091C2
:1023E000C7014091F80182E391E049C091E09093E8
:1023F000D801809173018093AC010E943A0341C0DF
:1024000080917301811117C0A1E0A0937301A09383
:10241000D801A093AC01F999FECF60E084E590E08B
:102420000E948D186091C6017091C7014091F8011A
:102430008CE291E024C010927301B1E0B093D80116
:102440001092AC01F999FECF61E084E590E00E9422
:102450008D186091C6017091C7014091F80182E426
:1024600091E00DC0E1E0E093D80180917301809389
:10247000AC014091F80160E971E084E391E00E94D1
:10248000DA0280916601909167010E94C11548C9E6
:10249000F1E0F093D801809173018093AC0140C9C1
:1024A00000916E0110916F012091700130917101C6
:1024B0004091E6015091E7016091E8017091E901D6
:1024C0000417150726073707F0F58091D3018130EF
:1024D00031F48091F801883270F48F5F0AC08091E6
:1024E000D101813009F01CC98091F801863018F0C3
:1024F00081508093F8014091F801642FC30170E08E
:102500000E94E41470937E0160937D0100916E013E
:1025100010916F0120917001309171010056104FA0
:102520002F4F3F4F0093E6011093E7012093E801FE
:102530003093E9016091C6017091C70184E491E094
:102540000E94DA02EDC8F999FECF6091F80185E5A5
:1025500090E00E948D1821E02093D80180917301B2
:102560008093AC018091F8011F928F933F922F923C
:10257000809167018F93809166018F930E946E1600
:102580006091C6017091C7014091F8018091660188
:10259000909167010E94DA020F900F900F900F90B8
:1025A0000F900F90BDC88091EE01813061F0809155
:1025B000CC01813041F08091D301813021F08091B4
:1025C000D1018130D1F561E471E08091FD019091FC
:1025D000FE010E945D168091FD019091FE01909395
:1025E0006501809364011092680140916E015091E1
:1025F0006F0160917001709171014093EA015093F5
:10260000EB016093EC017093ED018091C401809324
:10261000AC0180917C018093D8014091C001509120
:10262000C1016091C2017091C3014093E6015093D2
:10263000E7016093E8017093E9018091D80184304B
:1026400038F4823008F009C1813009F069C804C04B
:10265000873008F065C839C1A0916401B091650167
:102660002091FD013091FE01A217B30759F480912A
:102670006801811107C0EC91F0E0E85BFE4FE49146
:10268000E093680190916801992309F4ADC020910D
:102690007D0130917E01903821F09F3F09F03FC0CD
:1026A0000EC040916E0150916F0160917001709168
:1026B0007101C901880F991F820F931F0DC04091AE
:1026C0006E0150916F016091700170917101B29E25
:1026D000C001B39E900D1124480F591F611D711D3B
:1026E0004093E6015093E7016093E8017093E9019C
:1026F000A092D801CD010196909365018093640169
:102700001196EC91E11103C01092680109C8F0E044
:10271000E85BFE4FE491E09368010C94900B4091CC
:102720006E0150916F01609170017091710197FF7E
:1027300013C0F901EE0FFF1FE20FF31F4E0F5F1FD3
:10274000611D711D4093E6015093E7016093E8011C
:102750007093E90183E00DC0420F531F611D711D8D
:102760004093E6015093E7016093E8017093E9011B
:1027700082E08093D80100916E0110916F01209149
:102780007001309171010E5F1F4F2F4F3F4F00932B
:10279000B2011093B3012093B4013093B50140937B
:1027A000FF01509300026093010270930202409176
:1027B0006E0150916F0160917001709171014093B1
:1027C000F9015093FA016093FB017093FC01C092F0
:1027D000EA01D092EB01E092EC01F092ED01990F49
:1027E000909368010C94900B61E471E0C9010E9420
:1027F0005D168091FD019091FE019093650180939B
:1028000064011092680140916E0150916F016091D6
:102810007001709171014093EA015093EB01609354
:10282000EC017093ED018091C4018093AC01809123
:102830007C018093D8014091C0015091C101609109
:10284000C2017091C3014093E6015093E701609388
:10285000E8017093E9010C94900B00916E011091C6
:102860006F0120917001309171014091E60150910A
:10287000E7016091E8017091E90140175107620793
:102880007307D0F440916E0150916F016091700117
:102890007091710180917D0190917E01480F591FC7
:1028A000611D711D4093E6015093E7016093E801BB
:1028B0007093E9019092D80191E090934701909331
:1028C0004901909348010C94900B00916E01109176
:1028D0006F0120917001309171014091E60150919A
:1028E000E7016091E8017091E90140175107620723
:1028F000730718F4A1E0A093D80110924701109239
:102900004901B1E0B09348010C94900B109373010E
:102910000E94C4048091D801813011F5C092E60173
:10292000D092E701E092E801F092E90110924701AC
:10293000109249011092480140916E0150916F012F
:1029400060917001709171014093EA015093EB0125
:102950006093EC017093ED011092E4010C94900BE4
:10296000E1E0E093D8010C94900B0E941A15A59F0A
:10297000900DB49F900DA49F800D911D112408957A
:10298000DB018F939F930E94B514BF91AF91A29FDB
:10299000800D911DA39F900DB29F900D112408955D
:1029A000AA1BBB1B51E107C0AA1FBB1FA617B70775
:1029B00010F0A61BB70B881F991F5A95A9F7809591
:1029C0009095BC01CD01089597FB072E16F4009455
:1029D00007D077FD09D00E94D01407FC05D03EF443
:1029E000909581959F4F0895709561957F4F0895BB
:1029F000A1E21A2EAA1BBB1BFD010DC0AA1FBB1F03
:102A0000EE1FFF1FA217B307E407F50720F0A21B74
:102A1000B30BE40BF50B661F771F881F991F1A94E1
:102A200069F760957095809590959B01AC01BD010B
:102A3000CF010895A29FB001B39FC001A39F01D011
:102A4000B29F700D811D1124911D08950F931F9346
:102A5000CF93DF938230910510F482E090E0E09113
:102A60000702F091080220E030E0C0E0D0E023C08F
:102A70004081518148175907A8F04817590761F458
:102A800082819381209719F09B838A832EC0909333
:102A900008028093070229C02115310529F0421749
:102AA000530710F0A90102C0BE01DF0102811381AA
:102AB000EF019A01F8013097D9F62115310509F196
:102AC000281B390B2430310590F412968D919C917E
:102AD00013976115710521F0FB019383828304C074
:102AE0009093080280930702FD01329644C0FD01D5
:102AF000E20FF31F81939193225031092D933C9360
:102B00003AC02091050230910602232B41F4209116
:102B10000D0130910E0130930602209305022091A1
:102B20000B0130910C012115310541F42DB73EB751
:102B300040910F0150911001241B350BE0910502CB
:102B4000F0910602E217F307A0F42E1B3F0B2817A3
:102B5000390778F0AC014E5F5F4F2417350748F016
:102B60004E0F5F1F5093060240930502819391938D
:102B700002C0E0E0F0E0CF01DF91CF911F910F9113
:102B80000895EF92FF920F931F93CF93DF930097D7
:102B900009F48EC0DC01129713961C921E921297B4
:102BA000E0900702F0900802E114F10489F42D91FD
:102BB0003C911197280F391F8091050290910602D0
:102BC0008217930789F5B0930602A093050270C09F
:102BD000E70120E030E001C0EA01CA17DB0738F462
:102BE0004A815B819E0141155105B1F722C0AC01BC
:102BF00042505109FA01D383C28300811181BC0183
:102C0000600F711F6C177D0761F468817981600F17
:102C1000711F6E5F7F4F718360836A817B817383D5
:102C200062832115310529F4B0930802A0930702AD
:102C30003FC0F901B383A283E90149915991C40FBF
:102C4000D51FAC17BD0771F4DC019E918E91840FE6
:102C5000951F02969183808312968D919C91139774
:102C600093838283A0E0B0E002C0D7017C01F7012A
:102C7000828193810097C9F7C70102962081318133
:102C8000820F931F20910502309106022817390701
:102C900079F4109729F4109208021092070204C0E8
:102CA00013961C921E921297F0920602E092050271
:102CB000CDB7DEB7E6E00C947019FB01DC010190A2
:102CC0000D920020E1F70895DC016C9161566A31A4
:102CD00008F0605E6F5B6D93C1F70895A0E1B0E00E
:102CE000E4E7F6E10C9456190F89188D86E08C8381
:102CF0001A8309838FEF9FE79E838D83AE01455E24
:102D00005F4F588B4F87698D7A8DCE0101960E9457
:102D10009216EF81F885E00FF11F10826096E4E0D3
:102D20000C947219ACE0B0E0E8E9F6E10C944819B3
:102D30007C016B018A01FC0117821682838181FF6D
:102D4000C7C188248394912C8C0E9D1EF70193811A
:102D5000F60193FD859193FF81916F01882309F41A
:102D6000B3C1853239F493FD859193FF81916F0151
:102D7000853229F4B70190E00E94BE18E7CF712C8C
:102D8000312C20E02032A8F48B3261F028F480321C
:102D900051F0833271F40BC08D3239F0803349F435
:102DA000216028C02260246025C0286023C02061E3
:102DB00021C027FD27C0382F30533A3078F426FF42
:102DC00006C0FAE07F9E300D1124732E13C08AE0F6
:102DD000389E300D1124332E20620CC08E3221F427
:102DE00026FD72C1206406C08C3611F4206802C032
:102DF000883641F4F60193FD859193FF81916F012F
:102E00008111C0CF982F9554933018F09052933081
:102E100028F40C5F1F4FFFE3F9830DC0833631F0B8
:102E2000833771F0833509F05EC023C0F8018081DB
:102E300089830E5F1F4F66246394712C540115C063
:102E40002801F2E04F0E511CF801A080B18026FF4E
:102E500003C0672D70E002C06FEF7FEFC5012C87C4
:102E60000E94B3183C0182012C856FE7262E222296
:102E700018C02801F2E04F0E511CF801A080B1806B
:102E800026FF03C0672D70E002C06FEF7FEFC50122
:102E90002C870E94A8183C012C8550E8252E222A58
:102EA000820123FC1CC006C0B70180E290E00E94B2
:102EB000BE183A94832D90E068167906A8F30FC0E7
:102EC000F50127FC859127FE81915F01B70190E014
:102ED0000E94BE1831103A94F1E06F1A7108611423
:102EE000710471F7EEC0843611F0893641F5F801AE
:102EF00027FF07C060817181828193810C5F1F4F22
:102F000008C060817181882777FD8095982F0E5FBA
:102F10001F4F4FE6642E622297FF09C0909580955F
:102F2000709561957F4F8F4F9F4FF0E86F2A2AE091
:102F300030E0A4010E94EA18A82EA81844C08537E2
:102F400031F43FEEB32EB2222AE030E024C099EFF4
:102F5000B92EB2228F36B9F020F4883509F0B4C00A
:102F60000DC0803721F0883709F0AEC002C020E1E3
:102F7000B22AB4FE0BC084E0B82A08C024FF09C0FE
:102F8000E6E0BE2A06C028E030E005C020E130E0DF
:102F900002C020E132E0F801B7FE07C06081718114
:102FA000828193810C5F1F4F06C06081718180E038
:102FB00090E00E5F1F4FA4010E94EA18A82EA818E7
:102FC0008FE7682E6B2066FE0BC0362D3E7FA71460
:102FD00050F464FE0AC062FC08C0362D3E7E05C077
:102FE000BA2C362D03C0BA2C01C0B72C34FF0DC04B
:102FF000FE01EA0DF11D8081803311F4397E09C094
:1030000032FF06C0B394B39404C0832F867809F0CE
:10301000B39433FD14C030FF0FC07A2CB31460F4A6
:10302000730C7B18B32C08C0B70180E290E03C879A
:103030000E94BE18B3943C85B314B0F304C0B3141B
:1030400010F43B1801C0312C34FF12C0B70180E3EB
:1030500090E03C870E94BE183C8532FF1EC031FFC5
:1030600003C088E590E002C088E790E0B7010CC09B
:10307000832F867891F031FD02C080E201C08BE29F
:1030800037FD8DE2B70190E00E94BE1806C0B7017F
:1030900080E390E00E94BE187A94A714C0F3AA942B
:1030A000F401EA0DF11DB701808190E00E94BE1885
:1030B000A110F5CF06C0B70180E290E00E94BE18D3
:1030C0003A943110F8CF42CEF7012681378102C001
:1030D0002FEF3FEFC9012C96E2E10C946419DC015B
:1030E000CB01FC01F999FECF06C0F2BDE1BDF89A13
:1030F000319600B40D9241505040B8F70895F999B7
:10310000FECF92BD81BDF89A992780B50895A6E1BA
:10311000B0E044E050E00C947118262FF999FECFEE
:103120001FBA92BD81BD20BD0FB6F894FA9AF99AE4
:103130000FBE01960895242F0E948E18252F0E94FD
:103140008E180C94A3180E948D18272F0C948E189B
:10315000FC010590615070400110D8F78095909562
:103160008E0F9F1F0895FC01615070400190011067
:10317000D8F7809590958E0F9F1F08950F931F93FA
:10318000CF93DF938C01EB018B8181FD03C00FEFA7
:103190001FEF1AC082FF0DC02E813F818C819D815F
:1031A0002817390764F4E881F9810193F983E883EA
:1031B00006C0E885F985802F0995892B41F78E8116
:1031C0009F8101969F838E83C801DF91CF911F91CC
:1031D0000F910895FA01AA27283051F1203181F189
:1031E000E8946F936E7F6E5F7F4F8F4F9F4FAF4F0F
:1031F000B1E03ED0B4E03CD0670F781F891F9A1F22
:10320000A11D680F791F8A1F911DA11D6A0F711DD5
:10321000811D911DA11D20D009F468943F912AE0E1
:10322000269F11243019305D3193DEF6CF010895C9
:10323000462F4770405D4193B3E00FD0C9F7F6CFFA
:10324000462F4F70405D4A3318F0495D31FD4052C2
:10325000419302D0A9F7EACFB4E0A6959795879558
:1032600077956795BA95C9F7009761057105089537
:103270009B01AC010A2E06945795479537952795E3
:10328000BA95C9F7620F731F841F951FA01D08957B
:103290002F923F924F925F926F927F928F929F9266
:1032A000AF92BF92CF92DF92EF92FF920F931F9354
:1032B000CF93DF93CDB7DEB7CA1BDB0B0FB6F89405
:1032C000DEBF0FBECDBF09942A88398848885F8445
:1032D0006E847D848C849B84AA84B984C884DF80B6
:1032E000EE80FD800C811B81AA81B981CE0FD11D9A
:1032F0000FB6F894DEBF0FBECDBFED010895F89470
:02330000FFCFFD
:103302000119860001535752564B00000009022052
:10331200002564522564002D2531695225322E3252
:10332200690025303275522530327500530046004F
:103332005400520058004F00550043414C00434393
:0633420031004B004900C0
:00000001FF
