:100000000C94D2000C94EF000C94EF000C94EF00D1
:100010000C94EF000C94EF000C94EF000C94560934
:100020000C94EF000C94EF000C94EF000C94F10092
:100030000C94EF000C94EF000C94EF000C94EF0084
:100040000C94EF000C94EF000C94EF000C94EF0074
:100050000C94EF000C94EF000C94EF000C94EF0064
:100060000C94EF000C94EF00808386898C8F92951E
:10007000989C9FA2A5A8ABAEB0B3B6B9BCBFC1C493
:10008000C7C9CCCED1D3D5D8DADCDEE0E2E4E6E8ED
:10009000EAECEDEFF0F2F3F5F6F7F8F9FAFBFCFC19
:1000A000FDFEFEFFFFFFFFFFFFFFFFFFFFFFFEFE66
:1000B000FDFCFCFBFAF9F8F7F6F5F3F2F0EFEDECE6
:1000C000EAE8E6E4E2E0DEDCDAD8D5D3D1CECCC98A
:1000D000C7C4C1BFBCB9B6B3B0AEABA8A5A29F9C04
:1000E0009895928F8C898683807C797673706D6AFF
:1000F0006763605D5A5754514F4C494643403E3BFD
:10010000383633312E2C2A272523211F1D1B191782
:10011000151312100F0D0C0A090807060504030336
:1001200002010100000000000000000000000101C9
:100130000203030405060708090A0C0D0F10121329
:100140001517191B1D1F212325272A2C2E31333665
:10015000383B3E404346494C4F5154575A5D6063CB
:10016000676A6D707376797CFF8080808080808084
:100170008080808080E08094FC7C3C1C0C0484C4E3
:10018000E4F48080808C8032806088A8904028D001
:10019000082078B048E0A0F068D85010C03018703F
:1001A00098B8C80011241FBECFEFD8E0DEBFCDBF86
:1001B00011E0A0E0B1E0ECE6F9E302C005900D9299
:1001C000A834B107D9F712E0A8E4B1E001C01D924C
:1001D000A231B107E1F70E94460B0C94B41C0C94B9
:1001E00000001F920F920FB60F9211244F935F934E
:1001F0006F937F938F939F93AF93BF93EF93FF93EF
:10020000F89480914B018130B9F5569A8BB190E406
:1002100089278BB94091AF015091B0016091B10134
:100220007091B2018091C3019091C401A091C50168
:10023000B091C601840F951FA61FB71F8093AF0111
:100240009093B001A093B101B093B2018091AF013E
:100250009091B001A091B101B091B2018B2F99277B
:10026000AA27BB278093A201E091A201F0E0E85900
:10027000FF4FE491E7BD02C056985E987894FF91D5
:10028000EF91BF91AF919F918F917F916F915F910E
:100290004F910F900FBE0F901F901895682F80EB15
:1002A00094E070E00E94FF177093AE016093AD017F
:1002B0000895813041F510924E0110924D01109237
:1002C000500110924F011092520110925101109260
:1002D0005401109253011092560110925501109240
:1002E00058011092570110925A0110925901109220
:1002F0005C0110925B0110925E0110925D01109200
:10030000600110925F014B9911C080914D01909155
:100310004E018530910528F4019690934E0180930B
:100320004D01109252011092510110C08091510163
:10033000909152018530910528F4019690935201D5
:100340008093510110924E0110924D014C9911C0B1
:1003500080914F01909150018530910528F40196CC
:100360009093500180934F011092540110925301C9
:1003700010C080915301909154018530910528F46B
:100380000196909354018093530110925001109262
:100390004F0180914D0190914E01059718F081E039
:1003A0008093F7018091510190915201059710F0CF
:1003B0001092F70180914F0190915001059718F02C
:1003C00081E08093D501809153019091540105976C
:1003D00010F01092D5018091590190915A014A99DB
:1003E00008C04D9906C0019690935A018093590117
:1003F00015C09C01255031092F3E314010F481E099
:1004000004C0843F914020F082E08093DB0102C071
:100410001092DB0110925A011092590180915501FE
:10042000909156014A9906C0019690935601809387
:10043000550115C09C01255031092F3E314010F463
:1004400081E004C0843F914020F082E08093DC0191
:1004500002C01092DC011092560110925501809159
:100460005701909158014D9906C0019690935801FB
:100470008093570115C09C01255031092F3E314012
:1004800010F481E004C0843F914020F082E080932A
:10049000DA0102C01092DA0110925801109257014D
:1004A00080915B0190915C01339906C00196909315
:1004B0005C0180935B0115C09C01255031092F3EE2
:1004C000314010F481E004C0843F914020F082E08C
:1004D0008093EE0102C01092EE0110925C01109226
:1004E0005B01189911C080915D0190915E0185308A
:1004F000910528F4019690935E0180935D0110921E
:1005000062011092610110C08091610190916201BD
:100510008530910528F401969093620180936101E2
:1005200010925E0110925D014F9911C080915F01A0
:10053000909160018530910528F4019690936001B7
:1005400080935F01109264011092630110C080914A
:100550006301909164018530910528F40196909390
:100560006401809363011092600110925F01809199
:100570005D0190915E01059718F081E080939D01E7
:100580008091610190916201059710F010929D0198
:1005900080915F0190916001059718F081E0809350
:1005A0000C028091630190916401059710F0109204
:1005B0000C020895FF920F931F93CF93DF938C014A
:1005C000EB01F42E0E948F19B801809106029091E0
:1005D00007020E9478198091E1018093AC0180911B
:1005E000EF019091F001A091F101B091F20180939F
:1005F000C7019093C801A093C901B093CA0180912B
:10060000B3018093CB018091CD019091CE01909365
:10061000E7018093E601D093CE01C093CD01809194
:10062000010280930D02F0920102DE0129EB3DE808
:1006300046E050E00E94D0176093C3017093C4015C
:100640008093C5019093C6016F2D80EB94E070E01C
:100650000E94FF177093AE016093AD0181E080931B
:10066000E10182E08093B301DF91CF911F910F915F
:10067000FF900895CF93DF9380917A0084688093F0
:100680007A0082E680937C008AE090E00E94411824
:10069000D82FC92F80917A00806480937A0080914E
:1006A0007A0086FDFCCF2091790081EA289F900195
:1006B0001124832F90E06AE070E00E94EB179F9373
:1006C0008F937F936F9321E131E03F932F93CF93EB
:1006D000DF930E9499196091CD017091CE014091F4
:1006E00001028D2F9C2F0E94DA028DB79EB70896CB
:1006F0000FB6F8949EBF0FBE8DBF8D2F9C2FDF913C
:10070000CF910C94DC188F929F92AF92BF92CF92B0
:10071000DF92EF92FF92CF93DF938FE090E00E9401
:100720004118D82FC92F8091ED01823029F0809196
:10073000ED01813009F073C08091E3019091E401F3
:1007400097FF39C08091E3019091E4012091E3018A
:100750003091E40168EE73E00E94FF176AE070E0F8
:100760000E94FF1777FF03C07195619571097F9310
:100770006F93C90168EE73E00E94FF17CB0164E636
:1007800070E00E94FF1797FF03C091958195910932
:100790009F938F9387E191E09F938F93CF93DF9304
:1007A0000E9499198DB79EB708960FB6F8949EBF10
:1007B0000FBE8DBF76C08091E3019091E40120913E
:1007C000E3013091E40168EE73E00E94FF176AE0F4
:1007D00070E00E94FF1777FF03C071956195710962
:1007E0007F936F93C90168EE73E00E94FF17CB01FE
:1007F00064E670E00E94FF179F938F9388E191E079
:100800009F938F93CF93DF930E9499198DB79EB7D3
:1008100008960FB6F8949EBF0FBE8DBF42C0609180
:10082000FD017091FE018091FF0190910002809086
:10083000FD019090FE01A090FF01B090000258EEE3
:10084000C52E53E0D52EE12CF12CA70196010E9474
:1008500013182AE030E040E050E00E9413183F9364
:100860002F93C501B401A70196010E941318CA0174
:10087000B90124E630E040E050E00E9413187F9375
:100880006F9382E291E09F938F93CF93DF930E94C7
:1008900099198DB79EB708960FB6F8949EBF0FBEF4
:1008A0008DBF6091CD017091CE01409101028D2FDD
:1008B0009C2F0E94DA028D2F9C2FDF91CF91FF9009
:1008C000EF90DF90CF90BF90AF909F908F900C945F
:1008D000DC182D9A29989EBD0DB407FEFDCF8EBD64
:1008E0000DB407FEFDCF299A0895813019F488E3ED
:1008F00098E202C088E190E20C946904FF920F93A1
:100900001F93CF93DF93F22E413019F4E0E0F0E82B
:1009100002C0E0E0F0E48B019C011F732227332723
:100920000E0F1F1FAB01BC01AEE076956795579582
:100930004795AA95D1F75F7366277727EF01C40F14
:10094000D51F81E0F81204C088E191E20E94690499
:10095000C8010E946904CE010E94690481E0F81276
:100960000DC080E090EC0E94690488E190E2DF9184
:10097000CF911F910F91FF900C946904DF91CF915B
:100980001F910F91FF900895CF938091B30188300C
:1009900009F441C29091DB01923039F491E09093D7
:1009A000E1018093CB0183E038C09091DC0191306C
:1009B00041F48093CB0184E08093B3019093E101F3
:1009C0002EC08091DC01823029F448E250E06DE2D3
:1009D00070E00FC08091DA01813019F40E94830326
:1009E0001EC08091DA01823071F548E250E064E087
:1009F00070E085E691E00E949A1B65E671E08091C7
:100A00000602909107020E94781981E08093E1012B
:100A10008091B3018093CB0186E08093B3018091F4
:100A20009E0190919F01A091A001B091A101845DD0
:100A30009E4FAF4FBF4F8093E8019093E901A09381
:100A4000EA01B093EB018091EE01813009F082C0A0
:100A50009091ED01911154C090910401913041F5B4
:100A6000109204018BE190E09093030180930201C6
:100A700085E08093010180919E0190919F01A0915A
:100A8000A001B091A101845D9E4FAF4FBF4F8093F5
:100A9000E8019093E901A093EA01B093EB0181E0B2
:100AA0000E94590149E160E971E08CE291E0B1C135
:100AB0008093040186E890E0909303018093020103
:100AC00089E18093010180919E0190919F01A09105
:100AD000A001B091A101845D9E4FAF4FBF4F8093A5
:100AE000E8019093E901A093EA01B093EB0181E062
:100AF0000E94590149E164E873E08EE291E089C106
:100B000090914C01911114C080934C016091D601D9
:100B10007091D7018091D8019091D90120E040E0F7
:100B20000E947E0449E160E971E080E391E071C1D7
:100B300010924C016091CF017091D0018091D10150
:100B40009091D20120E040E00E947E0449E160E9FA
:100B500071E08CC08091EE01823009F05CC180911F
:100B6000ED018F5F8093ED018091ED01833010F0F6
:100B70001092ED018091ED01813021F0823009F079
:100B8000F0C077C0399A109204018BE190E0909305
:100B900003018093020185E0809301018091BD01F2
:100BA0009091BE01A091BF01B091C0018093CF018F
:100BB0009093D001A093D101B093D2018091BD0157
:100BC0009091BE01A091BF01B091C0018093D60168
:100BD0009093D701A093D801B093D9018091DD0102
:100BE0009091DE01A091DF01B091E0018093A80116
:100BF0009093A901A093AA01B093AB016091CF019A
:100C00007091D0018091D1019091D20120E040E01B
:100C10000E947E046091DD017091DE018091DF0110
:100C20009091E00120E041E00E947E0410924C018E
:100C30001092E4011092E30181E00E945901809139
:100C40009E0190919F01A091A001B091A101845DAE
:100C50009E4FAF4FBF4F8093E8019093E901A0935F
:100C6000EA01B093EB0149E164E873E082E391E0CB
:100C7000D0C0389AC1E0C093040186E890E0909318
:100C800003018093020189E1809301018091BD01FC
:100C90009091BE01A091BF01B091C0018093CF019E
:100CA0009093D001A093D101B093D2018091BD0166
:100CB0009091BE01A091BF01B091C0018093D60177
:100CC0009093D701A093D801B093D9018091DD0111
:100CD0009091DE01A091DF01B091E0018093A80125
:100CE0009093A901A093AA01B093AB016091D601A2
:100CF0007091D7018091D8019091D90120E040E016
:100D00000E947E046091DD017091DE018091DF011F
:100D10009091E00120E041E00E947E04C0934C01EC
:100D20001092E4011092E30181E00E945901809148
:100D30009E0190919F01A091A001B091A101845DBD
:100D40009E4FAF4FBF4F8093E8019093E901A0936E
:100D5000EA01B093EB0149E164E873E084E391E0D8
:100D600058C0399841983898409881E080930401A0
:100D700086E890E0909303018093020189E18093DB
:100D800001018091A8019091A901A091AA01B091BF
:100D9000AB018093DD019093DE01A093DF01B0935E
:100DA000E0016091BD017091BE018091BF01909101
:100DB000C00120E040E00E947E046091DD0170915E
:100DC000DE018091DF019091E00120E041E00E948E
:100DD0007E041092E4011092E30181E00E94590127
:100DE00080919E0190919F01A091A001B091A101DD
:100DF000845D9E4FAF4FBF4F8093E8019093E90110
:100E0000A093EA01B093EB0149E164E873E086E363
:100E100091E00E94DA0280919D01811102C0C0E040
:100E200001C0C2E080910C028111CF5F80918E01E0
:100E3000C81709F437C28695817080938E019C2F64
:100E40009170981709F4FAC08091ED01813021F476
:100E500080914C01882361F08091ED01823021F472
:100E600080914C01813021F08091ED0181111AC2F5
:100E70008091FD019091FE01A091FF01B0910002CF
:100E8000813C9F4CAA46B10508F4CFC08091ED018A
:100E9000813009F58091CF019091D001A091D101CD
:100EA000B091D2012091020130910301821B930B7A
:100EB000A109B1098093CF019093D001A093D101F2
:100EC000B093D2018091E3019091E401209101015E
:100ED000821B9109F9C08091ED018230B9F58091B2
:100EE000DD019091DE01A091DF01B091E001409120
:100EF00002015091030160E070E0841B950BA60B8A
:100F0000B70B8093DD019093DE01A093DF01B093D6
:100F1000E0018091D6019091D701A091D801B091C4
:100F2000D901841B950BA60BB70B8093D601909328
:100F3000D701A093D801B093D9018091E30190919A
:100F4000E40120910101821B910906C18091B30146
:100F5000883071F58091BD019091BE01A091BF01D3
:100F6000B091C0014B97A109B1098093BD01909345
:100F7000BE01A093BF01B093C0016091BD0170910B
:100F8000BE018091BF019091C00120E040E00E942D
:100F90007E044091BD015091BE016091BF017091EE
:100FA000C00180E090E00E94D01BF999FECF63C1A0
:100FB0008091DD019091DE01A091DF01B091E0010F
:100FC000409102015091030160E070E0841B950B99
:100FD000A60BB70B8093DD019093DE01A093DF0198
:100FE000B093E0018091BD019091BE01A091BF013D
:100FF000B091C001841B950BA60BB70B8093BD016C
:101000009093BE01A093BF01B093C0018091FD01F8
:101010009091FE01A091FF01B09100022091010189
:10102000821B9109A109B10912C181E00E945901F5
:1010300049E164E873E08CE391E032C18091ED0115
:10104000813021F480914C01882361F08091ED0181
:10105000823021F480914C01813021F08091ED01AA
:10106000811120C18091FD019091FE01A091FF01AD
:10107000B0910002803A9346AF46B10508F008C12E
:101080008091ED01813069F58091CF019091D0017F
:10109000A091D101B091D2012091020130910301C0
:1010A000820F931FA11DB11D8093CF019093D0019A
:1010B000A093D101B093D2018091E3019091E4011A
:1010C00020910101820F911D9093E4018093E3012F
:1010D0006091CF017091D0018091D1019091D201A6
:1010E000C6C08091ED01823009F043C08091DD01DE
:1010F0009091DE01A091DF01B091E00140910201E9
:101100005091030160E070E0840F951FA61FB71F88
:101110008093DD019093DE01A093DF01B093E001A5
:101120008091D6019091D701A091D801B091D901B9
:10113000840F951FA61FB71F8093D6019093D701E8
:10114000A093D801B093D9018091E3019091E4017B
:1011500020910101820F911D9093E4018093E3019E
:101160006091D6017091D7018091D8019091D901F9
:101170007EC08091B301883071F58091BD0190915E
:10118000BE01A091BF01B091C0014B96A11DB11D40
:101190008093BD019093BE01A093BF01B093C001A5
:1011A0006091BD017091BE018091BF019091C0011D
:1011B00020E040E00E947E044091BD015091BE01BC
:1011C0006091BF017091C00180E090E00E94D01B4F
:1011D000F999FECF50C08091DD019091DE01A09180
:1011E000DF01B091E001409102015091030160E004
:1011F00070E0840F951FA61FB71F8093DD019093A9
:10120000DE01A093DF01B093E0018091BD019091D8
:10121000BE01A091BF01B091C001840F951FA61F10
:10122000B71F8093BD019093BE01A093BF01B093FF
:10123000C0018091FD019091FE01A091FF01B0914C
:10124000000220910101820F911DA11DB11D80930B
:10125000FD019093FE01A093FF01B0930002609105
:10126000BD017091BE018091BF019091C00120E04D
:1012700040E00E947E046091DD017091DE0180916A
:10128000DF019091E00120E041E00E947E040AC06D
:1012900081E00E94590149E164E873E088E391E04C
:1012A0000E94DA02C0938E01CF9108951F920F928F
:1012B0000FB60F9211242F933F934F935F936F9329
:1012C0007F938F939F93AF93BF93EF93FF9340913F
:1012D000A4015091A5016091A6017091A701809190
:1012E000020290910302A0910402B09105028417BA
:1012F0009507A607B707A8F44091A4015091A5014E
:101300006091A6017091A7018091F3019091F40181
:10131000A091F501B091F601481759076A077B07BC
:1013200020F080914A01813011F42E9A01C02E984C
:101330004091A4015091A5016091A6017091A7016F
:101340008091080290910902A0910A02B0910B02CB
:10135000481759076A077B07F8F44091A401509198
:10136000A5016091A6017091A7018091B9019091AA
:10137000BA01A091BB01B091BC0184179507A607E3
:10138000B70750F488E198E20E946904809149010E
:10139000813031F42F9A05C088E190E20E946904FF
:1013A0002F988091ED01882369F08091ED018130C3
:1013B00019F4419A409806C08091ED01823011F4F1
:1013C000409A419880E00E9459018091A401909137
:1013D000A501A091A601B091A7010196A11DB11D83
:1013E0008093A4019093A501A093A601B093A701B7
:1013F000FF91EF91BF91AF919F918F917F916F91ED
:101400005F914F913F912F910F900FBE0F901F90C2
:101410001895813019F488E198E202C088E190E2E1
:101420000C9469049B01AC0169EB7DE886E090E0D7
:101430000E94DB176093C3017093C4018093C501C0
:101440009093C60108951092B9008AE08093B80085
:1014500084E08093BC000895CF93F89481E884BD24
:10146000C1E0C5BD8AE0809381001092800083E6D0
:1014700090E0909389008093880082E080936F00D1
:101480008093B00083E08093B1008091700082600F
:101490008093700089EF8093B300569A269A279A1A
:1014A00039984198389840983C9A449A3D9A459A80
:1014B00053985B9A54985C9A52985A9A55985D9AA8
:1014C0002098289A57985F9A3B98439A84B18E62E5
:1014D00084B989E58CBD8DB58EB5C093AC01C09340
:1014E000E101C093B8011092A4011092A5011092DD
:1014F000A6011092A70180E090E00E94B21B6093C9
:10150000BD017093BE018093BF019093C00189EC2F
:1015100095EEAFE3B2E08093DD019093DE01A093FE
:10152000DF01B093E00180EF94E4ABE6B0E080939C
:10153000FD019093FE01A093FF01B0930002609122
:10154000BD017091BE018091BF019091C00121E069
:1015500040E00E947E046091BD017091BE018091C7
:10156000BF019091C00120E040E00E947E046091A4
:10157000DD017091DE018091DF019091E00120E0BA
:1015800041E00E947E0488E592E09093CE01809332
:10159000CD0188E999E2ACE5BFE08093C301909367
:1015A000C401A093C501B093C6011092ED01109241
:1015B000EC012E9A87E590E00E94AA1B809301021D
:1015C000682F80EB94E070E00E94FF177093AE01EB
:1015D0006093AD0186E590E00E94AA1B811103C0D3
:1015E000C093B30102C01092B3018091D501813044
:1015F00031F49091F701911102C08093B3013399B6
:1016000006C088E08093B30181E08093E1012F98C8
:101610000E94230A8CE291E0EFECF7E03197F1F7BA
:1016200000C000000197C1F72E987894CF910895DB
:1016300084EA8093BC008091BC0087FFFCCF0895B2
:1016400084E98093BC0008958093BB0084E8809374
:10165000BC008091BC0087FFFCCF089584EC809390
:10166000BC008091BC0087FFFCCF8091BB00089537
:1016700084E88093BC008091BC0087FFFCCF809100
:10168000BB0008958091B900887F0895CF93DF93C0
:101690001F92CDB7DEB789E290E00E944118809397
:1016A00006029093070219E2DC01212F1D922A9570
:1016B000E9F780938F019093900189E290E00E9476
:1016C00041188093D3019093D401DC011D921A95A7
:1016D000E9F70E942C0A8091B3016091CD017091CD
:1016E000CE0144E1883019F48AE391E002C08EE330
:1016F00091E00E94DA02B5E0BB2E14E1612E11E008
:10170000712E07E0A02E04E0CC24CA94DC2C7601D4
:1017100013E080EB882E84E0982EF8948091A40149
:101720009091A501A091A601B091A70180939E017F
:1017300090939F01A093A001B093A1017894209170
:10174000B301243009F464C550F42130A9F008F441
:10175000F9C0223009F4A4C32330F9F6ADC4263011
:1017600009F41CC708F498C6273011F40C948D14A2
:10177000283099F60C94A1172093A30129830E9485
:10178000C4048091E10129818730B9F18C3009F4DA
:101790009CC0813009F0C1CF1092490110924B01D9
:1017A00010924A019091F701913011F00C94CC17EE
:1017B00040919E0150919F016091A0017091A10103
:1017C0004E5F5F4F6F4F7F4F4093B9015093BA0107
:1017D0006093BB017093BC01C0920802D0920902D1
:1017E000E0920A02F0920B02C092EF01D092F00157
:1017F000E092F101F092F201A6C48091FD01909176
:10180000FE01A091FF01B0910002813A9346AF46DC
:10181000B10568F48091FD019091FE01A091FF0156
:10182000B0910002803C9F4CAA46B10538F410925A
:10183000490110924B0110924A0106C020934901C0
:1018400020934B0120934A018091F701811134C00C
:101850008CE08093E10180919E0190919F01A09185
:10186000A001B091A1018093EF019093F001A093AA
:10187000F101B093F20140919E0150919F0160915E
:10188000A0017091A10148535F4F6F4F7F4F40936C
:10189000F3015093F4016093F5017093F6014091C8
:1018A0009E0150919F016091A0017091A1014E5F36
:1018B0005F4F6F4F7F4F81C4C0920802D0920902E0
:1018C000E0920A02F0920B0228CF10924901109286
:1018D0004B018091FD019091FE01A091FF01B0911B
:1018E0000002813A9346AF46B10568F48091FD014C
:1018F0009091FE01A091FF01B0910002803C9F4CAD
:10190000AA46B10518F410924A0102C020934A0178
:1019100040919E0150919F016091A0017091A101A1
:101920008091EF019091F001A091F101B091F2014D
:10193000481759076A077B0708F4EFCEF1E0F093E8
:10194000E101EBCE1092A3010E94C4048091E10159
:10195000833009F42AC130F4813059F0823009F023
:10196000DCCEBCC0843009F487C18C3009F0D5CE00
:1019700064C21092490110924B0110924A01809169
:101980009E0190919F01A091A001B091A10180932F
:10199000F3019093F401A093F501B093F6018091C7
:1019A000F701813061F49091D501911108C08093C5
:1019B000AC0122E02093E1018093B80182C08091C4
:1019C000D501813009F064C09091F701911160C098
:1019D0008093AC011093E1018093B80140919E0186
:1019E00050919F016091A0017091A1012091AD01E2
:1019F0003091AE01C901880F991F820F931F480FC4
:101A0000591F611D711D4093EF015093F0016093C8
:101A1000F1017093F20180919E0190919F01A0913C
:101A2000A001B091A1010296A11DB11D8093B90141
:101A30009093BA01A093BB01B093BC01DB01CA0132
:101A40000296A11DB11D8093080290930902A093F4
:101A50000A02B0930B0280919E0190919F01A09188
:101A6000A001B091A1018093020290930302A09380
:101A70000402B093050248535F4F6F4F7F4F40936E
:101A8000F3015093F4016093F5017093F60145CE94
:101A90008091F701813011F00C94CB178091D50122
:101AA000813011F00C94CB178091B801813011F086
:101AB0000C94CB178093AC0132E03093E10110938A
:101AC000B80140919E0150919F016091A0017091D9
:101AD000A1018091AD019091AE0191CF8091FD0166
:101AE0009091FE01A091FF01B0910002813A9346CE
:101AF000AF46B10568F48091FD019091FE01A0917F
:101B0000FF01B0910002803C9F4CAA46B10538F419
:101B10001092490110924B0110924A0107C021E036
:101B20002093490120934B0120934A0140919E014B
:101B300050919F016091A0017091A1018091EF01EE
:101B40009091F001A091F101B091F20184179507F5
:101B5000A607B707E8F432E03093AC010093E10147
:101B600040919E0150919F016091A0017091A1014F
:101B70008091AD019091AE01480F591F611D711DFB
:101B80004093EF015093F0016093F1017093F201E3
:101B90008091D501813009F0C0CD8091B8018130AC
:101BA00009F0BBCD1093B801B8CD8091FD019091A3
:101BB000FE01A091FF01B0910002813A9346AF4629
:101BC000B10568F48091FD019091FE01A091FF01A3
:101BD000B0910002803C9F4CAA46B10538F41092A7
:101BE000490110924B0110924A0107C021E0209355
:101BF000490120934B0120934A0140919E0150914D
:101C00009F016091A0017091A1018091EF019091DD
:101C1000F001A091F101B091F20184179507A60798
:101C2000B707E0F41093AC010093E10140919E01ED
:101C300050919F016091A0017091A1018091AD012F
:101C40009091AE01480F591F611D711D4093EF0126
:101C50005093F0016093F1017093F2018091F701CC
:101C6000813009F05ACD8091B801813009F055CD0D
:101C700032E03093B80151CD80919E0190919F0147
:101C8000A091A001B091A1014091EF015091F0010C
:101C90006091F1017091F201481759076A077B07BB
:101CA00008F08AC08091B801823079F48093E10114
:101CB00040919E0150919F016091A0017091A101FE
:101CC0008091AD019091AE0116C0833009F05CC0E7
:101CD0001093E10140919E0150919F016091A001FC
:101CE0007091A1012091AD013091AE01C901880F21
:101CF000991F820F931F480F591F611D711D40933B
:101D0000EF015093F0016093F1017093F201809123
:101D10009E0190919F01A091A001B091A101029616
:101D2000A11DB11D8093B9019093BA01A093BB018D
:101D3000B093BC01DB01CA010296A11DB11D8093C5
:101D4000080290930902A0930A02B0930B028091BB
:101D50009E0190919F01A091A001B091A10180935B
:101D6000020290930302A0930402B0930502485329
:101D70005F4F6F4F7F4F4093F3015093F401609397
:101D8000F5017093F60113C081E08093E101409169
:101D90009E0150919F016091A0017091A10140931B
:101DA000EF015093F0016093F1017093F201009301
:101DB000AC0191E09093B8018091F701813061F41A
:101DC0008091AC01833041F48091B801813021F4DD
:101DD000A2E0A093B8010EC08091D501813051F4EA
:101DE0008091AC01823031F48091B801813011F4DE
:101DF0001093B8011092490110924B014091FD01DE
:101E00005091FE016091FF0170910002413A5346EA
:101E10006F46710568F44091FD015091FE0160919B
:101E2000FF0170910002403C5F4C6A46710518F456
:101E300010924A0172CCF1E021C710924901109230
:101E40004B0121E020934A0180919E0190919F01D6
:101E5000A091A001B091A1014091EF015091F0013A
:101E60006091F1017091F201481759076A077B07E9
:101E700010F42093E10140919E0150919F016091E7
:101E8000A0017091A101445D5E4F6F4F7F4F409361
:101E9000E8015093E9016093EA017093EB013DCCB6
:101EA0008091E101843038F4823008F0AEC0813096
:101EB00009F033CC04C0873008F02FCCDDC0A091EE
:101EC0008F01B09190018091060290910702A817AE
:101ED000B90759F420919101211107C0EC91F0E06C
:101EE000E85BFE4FE491E0939101E0919101EE23D4
:101EF00009F45AC08091AD019091AE01E03819F01B
:101F0000EF3F09F50EC040919E0150919F016091F5
:101F1000A0017091A1019C01220F331F280F391FCE
:101F20000DC040919E0150919F016091A001709160
:101F3000A101A89E9001A99E300D1124420F531FAC
:101F4000611D711DC8C340919E0150919F01609118
:101F5000A0017091A101E7FF14C09C01220F331F63
:101F6000280F391F420F531F611D711D4093EF0150
:101F70005093F0016093F1017093F2011093E1012D
:101F80000FC0480F591F611D711D4093EF01509301
:101F9000F0016093F1017093F20132E03093E101BE
:101FA000EE0FE0939101B9CB61E471E00E947819E2
:101FB00080910602909107029093900180938F0187
:101FC00010929101A091E601B091E701B093CE018A
:101FD000A093CD0129EB3DE846E050E00E94D017E8
:101FE0006093C3017093C4018093C5019093C601AF
:101FF00060910D0260930102C40170E00E94FF171E
:102000007093AE016093AD0115C480919E019091D3
:102010009F01A091A001B091A1014091EF015091C9
:10202000F0016091F1017091F201481759076A07B8
:102030007B07D0F440919E0150919F016091A001D7
:102040007091A1018091AD019091AE01480F591F8F
:10205000611D711D4093EF015093F0016093F101F8
:102060007093F2010093E1011092490181E08093A5
:102070004B0180934A0151CB80919E0190919F0129
:10208000A091A001B091A1014091EF015091F00108
:102090006091F1017091F201481759076A077B07B7
:1020A00018F491E09093E1011092490110924B01D4
:1020B000A1E0A0934A0131CB8091E101873009F47E
:1020C00045C0883009F482C0813009F026CB4091A8
:1020D0009E0150919F016091A0017091A1014E5FFE
:1020E0005F4F6F4F7F4F4093B9015093BA01609398
:1020F000BB017093BC01C0920802D0920902E09229
:102100000A02F0920B02C092EF01D092F001E0922D
:10211000F101F092F20140919E0150919F01609176
:10212000A0017091A10140930202509303026093B9
:10213000040270930502C092F301D092F401E09280
:10214000F501F092F601A092E101E7CAB1E0B09387
:102150004901B0934B01B0934A018091F70181305E
:1021600069F08091D501813049F08091DC018130A6
:1021700029F08091DA01813009F0CFCA88E080939C
:10218000E10140919E0150919F016091A0017091E9
:10219000A10148535F4F6F4F7F4F4093EF01509322
:1021A000F0016093F1017093F20140919E01509112
:1021B0009F016091A0017091A1014093080250938A
:1021C000090260930A0270930B02A7CA1092490198
:1021D00010924B01E1E0E0934A0180919E019091C1
:1021E0009F01A091A001B091A1014091EF015091F8
:1021F000F0016091F1017091F20184179507A60733
:10220000B70708F48ACA10924A01E093E1013FC17E
:102210008091E101893071F08A3009F441C0813048
:1022200009F032C125E031E030939301209392010F
:1022300039E0B4C382E090E00E944118FC01909321
:1022400095018093940111821082A0919201B09126
:1022500093018C91808340919E0150919F016091E8
:10226000A0017091A1014056504F6F4F7F4F409396
:10227000EF015093F0016093F1017093F2018AE055
:102280008093E1016091CD017091CE0140910102F6
:10229000CF010E94DA028091940190919501F1C0E2
:1022A00084E190E00E9441188093D3019093D4017F
:1022B000DC0124E11D922A95E9F780919E0190911D
:1022C0009F01A091A001B091A1014091EF01509117
:1022D000F0016091F1017091F20184179507A60752
:1022E000B70708F0BBC05090DC0131E0531217C0B3
:1022F00081E00E945901E0919201F0919301CF0198
:10230000019690939301809392018181811103C082
:102310005092E101A6C089E08093E101AEC05090E7
:10232000DA0191E05912A9C081E00E945901E091BF
:102330009201F09193018081833579F038F48B34E8
:1023400009F45EC0823509F098C046C0863509F4AC
:102350004EC0873509F091C017C040919E01509141
:102360009F016091A0017091A1014056504F6F4FA5
:102370007F4F4093EF015093F0016093F101709310
:10238000F201B092B3012CC0A1E0A093E1018091D1
:10239000A3018093B301809101021F928F937F92DA
:1023A0006F928091D4018F938091D3018F930E947B
:1023B00099196091CD017091CE01409101028091F7
:1023C000D3019091D4010E94DA020F900F900F90E8
:1023D0000F900F900F9051C01092E101A092B301A5
:1023E0004091010264E873E082E391E044C05092BE
:1023F000E1018091A3018093B3010E943A033DC0A3
:102400008091A301811115C0B1E0B093A301B093F5
:10241000E101B093B301F999FECF60E086E590E069
:102420000E94C21B4091010264E873E08CE291E0DB
:1024300022C01092A301E1E0E093E1011092B30108
:10244000F999FECF61E086E590E00E94C21B4091C1
:10245000010264E873E082E491E00DC0F1E0F093E2
:10246000E1018091A3018093B3014091010260E9F1
:1024700071E084E391E00E94DA028091D3019091AF
:10248000D4010E94DC1849C921E02093E101809128
:10249000A3018093B30141C980919E0190919F0156
:1024A000A091A001B091A1014091EF015091F001E4
:1024B0006091F1017091F20184179507A607B707A3
:1024C000E8F58091DC01813031F48091010288329D
:1024D00070F48F5F0AC08091DA01813009F01DC964
:1024E00080910102863018F0815080930102E091C2
:1024F00001026E2FC40170E00E94FF177093AE01BD
:102500006093AD0180919E0190919F01A091A001E7
:10251000B091A1018056904FAF4FBF4F8093EF0114
:102520009093F001A093F101B093F2016091CD017D
:102530007091CE014E2F84E491E0FFC4F999FECF53
:102540006091010287E590E00E94C21B31E0309368
:10255000E1018091A3018093B301809101021F9258
:102560008F937F926F928091D4018F938091D3014A
:102570008F930E9499196091CD017091CE01409185
:1025800001028091D3019091D4010E94DA020F9050
:102590000F900F900F900F900F90BFC88091F70190
:1025A000813061F08091D501813041F08091DC0172
:1025B000813021F08091DA018130D1F561E471E060
:1025C00080910602909107020E947819809106027C
:1025D000909107029093900180938F011092910146
:1025E00040919E0150919F016091A0017091A101C5
:1025F0004093F3015093F4016093F5017093F60159
:102600008091CB018093B3018091AC018093E10173
:102610004091C7015091C8016091C9017091CA01F0
:102620004093EF015093F0016093F1017093F20138
:102630008091E101843038F4823008F015C1813096
:1026400009F06BC804C0873008F067C845C1A09185
:102650008F01B09190012091060230910702A217DC
:10266000B30759F480919101811107C0EC91F0E01A
:10267000E85BFE4FE491E0939101909191019923E1
:1026800009F4B9C02091AD013091AE01903821F02C
:102690009F3F09F03CC00EC040919E0150919F01A8
:1026A0006091A0017091A101C901880F991F820F4B
:1026B000931F0DC040919E0150919F016091A00118
:1026C0007091A101A29EC001A39E900D1124480FFC
:1026D000591F611D711D4093EF015093F0016093EC
:1026E000F1017093F201B092E101CD010196909356
:1026F000900180938F011196EC91E11103C010922B
:1027000091010BC8F0E0E85BFE4FE4914ACC4091A8
:102710009E0150919F016091A0017091A10197FFCE
:1027200021C0F901EE0FFF1FE20FF31F4E0F5F1FD5
:10273000611D711D4093EF015093F0016093F10111
:102740007093F2011093E10120909E0130909F015F
:102750004090A0015090A10182E0280E311C411C44
:10276000511C1CC0420F531F611D711D4093EF018E
:102770005093F0016093F1017093F201A2E0A093F5
:10278000E10120909E0130909F014090A001509067
:10279000A101B2E02B0E311C411C511C2092B90149
:1027A0003092BA014092BB015092BC0140930802A2
:1027B0005093090260930A0270930B0240919E01AC
:1027C00050919F016091A0017091A101409302027C
:1027D000509303026093040270930502C092F301C8
:1027E000D092F401E092F501F092F601990F9093E6
:1027F00091010C948D0B61E471E0C9010E9478197C
:1028000080910602909107029093900180938F012E
:102810001092910140919E0150919F016091A00101
:102820007091A1014093F3015093F4016093F5017D
:102830007093F6018091CB018093B3018091AC013C
:102840008093E1014091C7015091C8016091C90195
:102850007091CA014093EF015093F0016093F10130
:102860007093F2010C948D0B80919E0190919F01C9
:10287000A091A001B091A1014091EF015091F00110
:102880006091F1017091F201481759076A077B07BF
:10289000D0F440919E0150919F016091A0017091F0
:1028A000A1018091AD019091AE01480F591F611DAA
:1028B000711D4093EF015093F0016093F10170930B
:1028C000F2010093E101E1E0E0934901E0934B0163
:1028D000E0934A010C948D0B80919E0190919F0191
:1028E000A091A001B091A1014091EF015091F001A0
:1028F0006091F1017091F201481759076A077B074F
:1029000018F4F1E0F093E1011092490110924B01AB
:1029100021E020934A010C948D0B8091E1018330DA
:1029200009F4B0C128F48130E9F108F04EC10BC0C0
:102930008B3009F48DC28C3009F4D9C2843011F087
:102940000C948D0BEEC140919E0150919F016091BE
:10295000A0017091A1014093020250930302609381
:10296000040270930502C092F301D092F401E09248
:10297000F501F092F6011092960110929701C09223
:102980009801D0929901E0929A01F0929B0161E442
:1029900071E085E691E00E94781931E03093E10121
:1029A0000C948D0B8091F7018130D9F58091D50180
:1029B000811137C081E08093AC0192E09093E101F6
:1029C0008093B80140919E0150919F016091A001B8
:1029D0007091A1018091AD019091AE01480F591FF6
:1029E000611D711D4093EF015093F0016093F1015F
:1029F0007093F20140919E0150919F016091A0015E
:102A00007091A10148515C4F6F4F7F4F40939801E7
:102A10005093990160939A0170939B018091970163
:102A200050C08091D501813009F04DC09091F701DF
:102A3000911149C08093AC011093E1018093B801DA
:102A400040919E0150919F016091A0017091A10160
:102A50002091AD013091AE01C901880F991F820FFD
:102A6000931F480F591F611D711D4093EF01509333
:102A7000F0016093F1017093F20140919E01509139
:102A80009F016091A0017091A10148515C4F6F4F6F
:102A90007F4F409398015093990160939A017093EE
:102AA0009B012091970180E890E0022E02C095954D
:102AB00087950A94E2F790919601980F909396016A
:102AC000822F8F5F56C08091F701813009F058C086
:102AD0008091D501813009F053C08091B8018130D7
:102AE00009F04EC08093AC01A2E0A093E1011093E5
:102AF000B80140919E0150919F016091A001709199
:102B0000A1018091AD019091AE01480F591F611D47
:102B1000711D4093EF015093F0016093F1017093A8
:102B2000F20140919E0150919F016091A00170912E
:102B3000A10148515C4F6F4F7F4F409398015093D4
:102B4000990160939A0170939B0140919701242F02
:102B500030E02F5F3F4F80E890E002C09595879569
:102B60002A95E2F790919601980F90939601842F01
:102B70008E5F80939701863018F08BE08093B801C8
:102B800080919E0190919F01A091A001B091A1011F
:102B9000409198015091990160919A0170919B0127
:102BA000481759076A077B0738F4809197018823F3
:102BB00019F08BE08093E1018091DC01813009F014
:102BC0003EC18CE08093E1013AC180919E019091D9
:102BD0009F01A091A001B091A1014091EF015091FE
:102BE000F0016091F1017091F201481759076A07ED
:102BF0007B07E8F4E2E0E093AC010093E10140914F
:102C00009E0150919F016091A0017091A10180915E
:102C1000AD019091AE01480F591F611D711D409388
:102C2000EF015093F0016093F1017093F2018091F4
:102C3000D5018130F1F48091B8018130D1F4109345
:102C4000B8012091970180E890E0022E02C095958E
:102C500087950A94E2F790919601980F90939601C8
:102C6000822F8F5F80939701863018F08BE08093DE
:102C7000B80110924901F1E0F0934B01F0934A0141
:102C80000C948D0B20909E0130909F014090A001EC
:102C90005090A1014091EF015091F0016091F1013C
:102CA0007091F2014215530564057505E0F48093B7
:102CB000AC010093E10140919E0150919F01609110
:102CC000A0017091A1018091AD019091AE01480FDA
:102CD000591F611D711D4093EF015093F0016093E6
:102CE000F1017093F2018091F701813089F48091B4
:102CF000B801813069F422E02093B80180919701F6
:102D00008F5F80939701863018F08BE08093B80135
:102D10001092490131E030934B0130934A010C94F9
:102D20008D0B80919E0190919F01A091A001B09187
:102D3000A1014091EF015091F0016091F10170917A
:102D4000F201481759076A077B0708F040C08091D5
:102D5000B801823079F48093E10140919E01509155
:102D60009F016091A0017091A1018091AD019091AE
:102D7000AE0115C0833001F58093E10140919E01C1
:102D800050919F016091A0017091A1012091AD012E
:102D90003091AE01C901880F991F820F931F480F10
:102DA000591F611D711D4093EF015093F001609315
:102DB000F1017093F20106C08B3009F401C081E08B
:102DC0008093E1010093AC0191E09093B801809170
:102DD000F701813071F48091AC01833051F480911E
:102DE000B801813031F4A2E0A093B801809197013D
:102DF0001EC08091D501813011F58091AC018230E7
:102E0000F1F48091B8018130D1F41093B801209190
:102E1000970180E890E0022E02C0959587950A946C
:102E2000E2F790919601980F90939601822F8F5F11
:102E300080939701863018F08BE08093B801109250
:102E4000490110924B01B1E0B0934A010C948D0BF3
:102E500080E890E00090970102C0959587950A94CC
:102E6000E2F790919601980F9093960180E223C02B
:102E7000E82FF0E0E85BFE4FE491282F2F5F9E13D0
:102E800019C080939C0141E050E06CE971E085E657
:102E900091E00E947F191092960110929701E1E053
:102EA000E093E10146E164E873E086E491E00E948A
:102EB000DA0205C0822F8B35D8F280939C01809175
:102EC0009C018B3578F080E88093960110929701F1
:102ED000F1E0F093E10146E160E971E084E391E023
:102EE0000E94DA0221E02093E1010C948D0B49E26B
:102EF00050E06DE270E085E691E00E94B81B4091E1
:102F00009E0150919F016091A0017091A101409399
:102F1000F3015093F4016093F5017093F601109260
:102F20004A0131E03093E1018091A3018093B30124
:102F300046E164E873E082E391E00E94DA020C94D7
:102F40008D0B2093A3010E94C4048091E101813084
:102F500011F5C092EF01D092F001E092F101F092F0
:102F6000F2011092490110924B0110924A014091D6
:102F70009E0150919F016091A0017091A101409329
:102F8000F3015093F4016093F5017093F6011092F0
:102F9000ED010C948D0B81E08093E1010C948D0B7D
:102FA0000E943518A59F900DB49F900DA49F800D91
:102FB000911D11240895DB018F939F930E94D017D8
:102FC000BF91AF91A29F800D911DA39F900DB29FC5
:102FD000900D11240895AA1BBB1B51E107C0AA1F25
:102FE000BB1FA617B70710F0A61BB70B881F991FAA
:102FF0005A95A9F780959095BC01CD01089597FB4E
:10300000072E16F4009407D077FD09D00E94EB1725
:1030100007FC05D03EF4909581959F4F08957095DB
:1030200061957F4F0895A1E21A2EAA1BBB1BFD01DB
:103030000DC0AA1FBB1FEE1FFF1FA217B307E40797
:10304000F50720F0A21BB30BE40BF50B661F771FEF
:10305000881F991F1A9469F76095709580959095CF
:103060009B01AC01BD01CF010895A29FB001B39FA8
:10307000C001A39F01D0B29F700D811D1124911D2D
:1030800008950F931F93CF93DF938230910510F42F
:1030900082E090E0E0911002F091110220E030E037
:1030A000C0E0D0E023C04081518148175907A8F003
:1030B0004817590761F482819381209719F09B8307
:1030C0008A832EC0909311028093100229C021158B
:1030D000310529F04217530710F0A90102C0BE01C3
:1030E000DF0102811381EF019A01F8013097D9F6CF
:1030F0002115310509F1281B390B2430310590F4D5
:1031000012968D919C9113976115710521F0FB0129
:103110009383828304C09093110280931002FD0177
:10312000329644C0FD01E20FF31F81939193225028
:1031300031092D933C933AC020910E0230910F0239
:10314000232B41F420910D0130910E0130930F0299
:1031500020930E0220910B0130910C0121153105B5
:1031600041F42DB73EB740910F0150911001241B3F
:10317000350BE0910E02F0910F02E217F307A0F475
:103180002E1B3F0B2817390778F0AC014E5F5F4FBD
:103190002417350748F04E0F5F1F50930F024093DE
:1031A0000E028193919302C0E0E0F0E0CF01DF9145
:1031B000CF911F910F910895EF92FF920F931F935C
:1031C000CF93DF93009709F48EC0DC01129713961A
:1031D0001C921E921297E0901002F0901102E114DE
:1031E000F10489F42D913C911197280F391F80919A
:1031F0000E0290910F028217930789F5B0930F0288
:10320000A0930E0270C0E70120E030E001C0EA01A7
:10321000CA17DB0738F44A815B819E0141155105CD
:10322000B1F722C0AC0142505109FA01D383C283E5
:1032300000811181BC01600F711F6C177D0761F463
:1032400068817981600F711F6E5F7F4F718360832A
:103250006A817B81738362832115310529F4B093E0
:103260001102A09310023FC0F901B383A283E901C8
:1032700049915991C40FD51FAC17BD0771F4DC01FA
:103280009E918E91840F951F029691838083129652
:103290008D919C91139793838283A0E0B0E002C04C
:1032A000D7017C01F701828193810097C9F7C7019B
:1032B000029620813181820F931F20910E0230915E
:1032C0000F022817390779F4109729F41092110288
:1032D0001092100204C013961C921E921297F09244
:1032E0000F02E0920E02CDB7DEB7E6E00C94A51C0B
:1032F000FB01DC0101900D920020E1F70895FB0134
:10330000DC010D900020E9F711974150504028F062
:10331000019000200D92C9F708951C920895DC01D8
:103320006C9161566A3108F0605E6F5B6D93C1F716
:103330000895A0E1B0E0EFE9F9E10C948B1C0F894E
:10334000188D86E08C831A8309838FEF9FE79E8315
:103350008D83AE01455E5F4F588B4F87698D7A8DA7
:10336000CE0101960E94BD19EF81F885E00FF11F93
:1033700010826096E4E00C94A71CACE0B0E0E3ECB3
:10338000F9E10C947D1C7C016B018A01FC01178220
:103390001682838181FFC7C188248394912C8C0E6F
:1033A0009D1EF7019381F60193FD859193FF819115
:1033B0006F01882309F4B3C1853239F493FD8591F7
:1033C00093FF81916F01853229F4B70190E00E944B
:1033D000F31BE7CF712C312C20E02032A8F48B3284
:1033E00061F028F4803251F0833271F40BC08D32D9
:1033F00039F0803349F4216028C02260246025C060
:10340000286023C0206121C027FD27C0382F3053FA
:103410003A3078F426FF06C0FAE07F9E300D112482
:10342000732E13C08AE0389E300D1124332E206293
:103430000CC08E3221F426FD72C1206406C08C3689
:1034400011F4206802C0883641F4F60193FD85919D
:1034500093FF81916F018111C0CF982F95549330C4
:1034600018F09052933028F40C5F1F4FFFE3F9835C
:103470000DC0833631F0833771F0833509F05EC0BB
:1034800023C0F801808189830E5F1F4F66246394F7
:10349000712C540115C02801F2E04F0E511CF801A7
:1034A000A080B18026FF03C0672D70E002C06FEFDF
:1034B0007FEFC5012C870E94E81B3C0182012C850F
:1034C0006FE7262E222218C02801F2E04F0E511C71
:1034D000F801A080B18026FF03C0672D70E002C014
:1034E0006FEF7FEFC5012C870E94DD1B3C012C850F
:1034F00050E8252E222A820123FC1CC006C0B701F9
:1035000080E290E00E94F31B3A94832D90E06816CD
:103510007906A8F30FC0F50127FC859127FE81915C
:103520005F01B70190E00E94F31B31103A94F1E083
:103530006F1A71086114710471F7EEC0843611F0CE
:10354000893641F5F80127FF07C0608171818281CA
:1035500093810C5F1F4F08C060817181882777FDC0
:103560008095982F0E5F1F4F4FE6642E622297FFC3
:1035700009C090958095709561957F4F8F4F9F4FB3
:10358000F0E86F2A2AE030E0A4010E941F1CA82E58
:10359000A81844C0853731F43FEEB32EB2222AE09A
:1035A00030E024C099EFB92EB2228F36B9F020F462
:1035B000883509F0B4C00DC0803721F0883709F094
:1035C000AEC002C020E1B22AB4FE0BC084E0B82A2B
:1035D00008C024FF09C0E6E0BE2A06C028E030E0AB
:1035E00005C020E130E002C020E132E0F801B7FE82
:1035F00007C060817181828193810C5F1F4F06C07B
:103600006081718180E090E00E5F1F4FA4010E94F5
:103610001F1CA82EA8188FE7682E6B2066FE0BC013
:10362000362D3E7FA71450F464FE0AC062FC08C029
:10363000362D3E7E05C0BA2C362D03C0BA2C01C0F3
:10364000B72C34FF0DC0FE01EA0DF11D80818033DF
:1036500011F4397E09C032FF06C0B394B39404C09C
:10366000832F867809F0B39433FD14C030FF0FC068
:103670007A2CB31460F4730C7B18B32C08C0B70118
:1036800080E290E03C870E94F31BB3943C85B31426
:10369000B0F304C0B31410F43B1801C0312C34FF54
:1036A00012C0B70180E390E03C870E94F31B3C8589
:1036B00032FF1EC031FF03C088E590E002C088E7FA
:1036C00090E0B7010CC0832F867891F031FD02C0E5
:1036D00080E201C08BE237FD8DE2B70190E00E94ED
:1036E000F31B06C0B70180E390E00E94F31B7A94BD
:1036F000A714C0F3AA94F401EA0DF11DB70180816B
:1037000090E00E94F31BA110F5CF06C0B70180E244
:1037100090E00E94F31B3A943110F8CF42CEF701AB
:103720002681378102C02FEF3FEFC9012C96E2E1DD
:103730000C94991CDC01CB01FC01F999FECF06C069
:10374000F2BDE1BDF89A319600B40D92415050405F
:10375000B8F70895F999FECF92BD81BDF89A9927DF
:1037600080B50895A6E1B0E044E050E00C949C1BC5
:10377000DC01CB0103C02D910E94C31B415050407E
:10378000D0F70895262FF999FECF1FBA92BD81BDBB
:1037900020BD0FB6F894FA9AF99A0FBE01960895D3
:1037A000242F0E94C31B252F0E94C31B0C94D81BDF
:1037B0000E94C21B272F0C94C31BFC010590615073
:1037C00070400110D8F7809590958E0F9F1F089537
:1037D000FC016150704001900110D8F780959095E0
:1037E0008E0F9F1F08950F931F93CF93DF938C012C
:1037F000EB018B8181FD03C00FEF1FEF1AC082FF29
:103800000DC02E813F818C819D812817390764F47A
:10381000E881F9810193F983E88306C0E885F98599
:10382000802F0995892B41F78E819F8101969F8377
:103830008E83C801DF91CF911F910F910895FA01F6
:10384000AA27283051F1203181F1E8946F936E7FDF
:103850006E5F7F4F8F4F9F4FAF4FB1E03ED0B4E0D0
:103860003CD0670F781F891F9A1FA11D680F791F11
:103870008A1F911DA11D6A0F711D811D911DA11D22
:1038800020D009F468943F912AE0269F1124301932
:10389000305D3193DEF6CF010895462F4770405DCD
:1038A0004193B3E00FD0C9F7F6CF462F4F70405D7C
:1038B0004A3318F0495D31FD4052419302D0A9F7D7
:1038C000EACFB4E0A6959795879577956795BA95D1
:1038D000C9F700976105710508959B01AC010A2E97
:1038E00006945795479537952795BA95C9F7620F6E
:1038F000731F841F951FA01D08952F923F924F9212
:103900005F926F927F928F929F92AF92BF92CF926F
:10391000DF92EF92FF920F931F93CF93DF93CDB778
:10392000DEB7CA1BDB0B0FB6F894DEBF0FBECDBFF0
:1039300009942A88398848885F846E847D848C84C1
:103940009B84AA84B984C884DF80EE80FD800C81CA
:103950001B81AA81B981CE0FD11D0FB6F894DEBFAD
:0C3960000FBECDBFED010895F894FFCF1D
:10396C000119860001535752564B000000120220D9
:10397C00002564522564002D2531695225322E32E2
:10398C0069002530327552253032750053004600DF
:10399C005400520058004F00550043414C00434323
:0839AC0031004B004900450009
:00000001FF
