:100000000C94D2000C94EF000C94EF000C94EF00D1
:100010000C94EF000C94EF000C94EF000C946F091B
:100020000C94EF000C94EF000C94EF000C94F10092
:100030000C94EF000C94EF000C94EF000C94EF0084
:100040000C94EF000C94EF000C94EF000C94EF0074
:100050000C94EF000C94EF000C94EF000C94EF0064
:100060000C94EF000C94EF00808386898C8F92951E
:10007000989C9FA2A5A8ABAEB0B3B6B9BCBFC1C493
:10008000C7C9CCCED1D3D5D8DADCDEE0E2E4E6E8ED
:10009000EAECEDEFF0F2F3F5F6F7F8F9FAFBFCFC19
:1000A000FDFEFEFFFFFFFFFFFFFFFFFFFFFFFEFE66
:1000B000FDFCFCFBFAF9F8F7F6F5F3F2F0EFEDECE6
:1000C000EAE8E6E4E2E0DEDCDAD8D5D3D1CECCC98A
:1000D000C7C4C1BFBCB9B6B3B0AEABA8A5A29F9C04
:1000E0009895928F8C898683807C797673706D6AFF
:1000F0006763605D5A5754514F4C494643403E3BFD
:10010000383633312E2C2A272523211F1D1B191782
:10011000151312100F0D0C0A090807060504030336
:1001200002010100000000000000000000000101C9
:100130000203030405060708090A0C0D0F10121329
:100140001517191B1D1F212325272A2C2E31333665
:10015000383B3E404346494C4F5154575A5D6063CB
:10016000676A6D707376797CFF8080808080808084
:100170008080808080E08094FC7C3C1C0C0484C4E3
:10018000E4F48080808C8032806088A8904028D001
:10019000082078B048E0A0F068D85010C03018703F
:1001A00098B8C80011241FBECFEFD8E0DEBFCDBF86
:1001B00011E0A0E0B1E0E4EBFDE302C005900D9298
:1001C000AC34B107D9F712E0ACE4B1E001C01D9244
:1001D000AD31B107E1F70E945A0B0C94D81E0C9474
:1001E00000001F920F920FB60F9211244F935F934E
:1001F0006F937F938F939F93AF93BF93EF93FF93EF
:10020000F89480914F01813091F54091BA0150915D
:10021000BB016091BC017091BD018091CE019091B4
:10022000CF01A091D001B091D101840F951FA61FDD
:10023000B71F8093BA019093BB01A093BC01B09308
:10024000BD018091BA019091BB01A091BC01B09118
:10025000BD018B2F9927AA27BB278093AD01E09181
:10026000AD01F0E0E859FF4FE491E7BD02C080E83E
:1002700087BD7894FF91EF91BF91AF919F918F913E
:100280007F916F915F914F910F900FBE0F901F90D4
:100290001895682F80EB94E070E00E94091A709323
:1002A000B9016093B8010895813041F5109252016F
:1002B0001092510110925401109253011092560164
:1002C00010925501109258011092570110925A0144
:1002D0001092590110925C0110925B0110925E0124
:1002E00010925D011092600110925F011092620104
:1002F0001092610110926401109263014B9911C038
:1003000080915101909152018530910528F4019618
:100310009093520180935101109256011092550111
:1003200010C080915501909156018530910528F4B7
:1003300001969093560180935501109252011092AC
:1003400051014C9911C08091530190915401853015
:10035000910528F4019690935401809353011092D3
:1003600058011092570110C0809157019091580187
:100370008530910528F40196909358018093570198
:1003800010925401109253018091510190915201A9
:10039000059718F081E080930202809155019091B9
:1003A0005601059710F0109202028091530190912E
:1003B0005401059718F081E08093E0018091570186
:1003C00090915801059710F01092E00180915D0125
:1003D00090915E014A9908C04D9906C0019690938C
:1003E0005E0180935D0115C09C01255031092F3EAF
:1003F000314010F481E004C0843F914020F082E05D
:100400008093E60102C01092E60110925E01109204
:100410005D018091590190915A014A9906C0019657
:1004200090935A018093590115C09C0125503109C0
:100430002F3E314010F481E004C0843F914020F011
:1004400082E08093E70102C01092E70110925A0106
:100450001092590180915B0190915C014D9906C009
:10046000019690935C0180935B0115C09C0125501F
:1004700031092F3E314010F481E004C0843F9140A7
:1004800020F082E08093E50102C01092E501109215
:100490005C0110925B0180915F0190916001339942
:1004A00006C001969093600180935F0115C09C0186
:1004B000255031092F3E314010F481E004C0843FC3
:1004C000914020F082E08093F90102C01092F9017E
:1004D0001092600110925F01189911C08091610122
:1004E000909162018530910528F401969093620104
:1004F00080936101109266011092650110C0809195
:100500006501909166018530910528F401969093DC
:1005100066018093650110926201109261014F990A
:1005200011C080916301909164018530910528F498
:100530000196909364018093630110926801109278
:10054000670110C080916701909168018530910525
:1005500028F40196909368018093670110926401DA
:10056000109263018091610190916201059718F0EA
:1005700081E08093A80180916501909166010597C3
:1005800010F01092A8018091630190916401059789
:1005900018F081E0809317028091670190916801C3
:1005A000059710F0109217020895FF920F931F9372
:1005B000CF93DF938C01EB01F42E0E94B31BB801A3
:1005C00080911102909112020E948D1B8091EC018A
:1005D0008093B7018091FA019091FB01A091FC01F9
:1005E000B091FD018093D2019093D301A093D401E7
:1005F000B093D5018091BE018093D6018091D8013E
:100600009091D9019093F2018093F101D093D90197
:10061000C093D80180910C0280931802F0920C02D2
:10062000DE0129EB3DE846E050E00E94DA196093D4
:10063000CE017093CF018093D0019093D1016F2DA3
:1006400080EB94E070E00E94091A7093B901609306
:10065000B80181E08093EC0182E08093BE01DF91DC
:10066000CF911F910F91FF900895CF93DF938091C9
:100670007A00846880937A0082E680937C008AE026
:1006800090E00E944B1AD82FC92F80917A00806485
:1006900080937A0080917A0086FDFCCF20917900CA
:1006A00081EA289F90011124832F90E06AE070E096
:1006B0000E94F5199F938F937F936F9322E131E00E
:1006C0003F932F93CF93DF930E94BD1B6091D8017E
:1006D0007091D90140910C028D2F9C2F0E94D50260
:1006E0008DB79EB708960FB6F8949EBF0FBE8DBF0C
:1006F0008D2F9C2FDF91CF910C94E61A8F929F92B1
:10070000AF92BF92CF92DF92EF92FF92CF93DF939F
:100710008FE090E00E944B1AD82FC92F8091F801EA
:10072000823029F08091F801813009F073C0809106
:10073000EE019091EF0197FF39C08091EE01909109
:10074000EF012091EE013091EF0168EE73E00E941D
:10075000091A6AE070E00E94091A77FF03C07195D8
:10076000619571097F936F93C90168EE73E00E94F0
:10077000091ACB0164E670E00E94091A97FF03C0D2
:100780009195819591099F938F9388E191E09F9333
:100790008F93CF93DF930E94BD1B8DB79EB70896B2
:1007A0000FB6F8949EBF0FBE8DBF76C08091EE014C
:1007B0009091EF012091EE013091EF0168EE73E02E
:1007C0000E94091A6AE070E00E94091A77FF03C0CC
:1007D0007195619571097F936F93C90168EE73E01C
:1007E0000E94091ACB0164E670E00E94091A9F93E7
:1007F0008F9389E191E09F938F93CF93DF930E9432
:10080000BD1B8DB79EB708960FB6F8949EBF0FBE5E
:100810008DBF42C0609108027091090280910A0266
:1008200090910B028090080290900902A0900A0219
:10083000B0900B0258EEC52E53E0D52EE12CF12CD2
:10084000A70196010E941D1A2AE030E040E050E026
:100850000E941D1A3F932F93C501B401A701960171
:100860000E941D1ACA01B90124E630E040E050E0C0
:100870000E941D1A7F936F9383E291E09F938F9361
:10088000CF93DF930E94BD1B8DB79EB708960FB61E
:10089000F8949EBF0FBE8DBF6091D8017091D901B1
:1008A00040910C028D2F9C2F0E94D5028D2F9C2FE2
:1008B000DF91CF91FF90EF90DF90CF90BF90AF90FE
:1008C0009F908F900C94E61A209164002B7F2093C8
:1008D00064002D9A29989EBD0DB407FEFDCF8EBDF4
:1008E0000DB407FEFDCF299A809164008460809347
:1008F00064000895813019F488E398E202C088E129
:1009000090E20C946404FF920F931F93CF93DF93B4
:10091000F22E413019F4E0E0F0E802C0E0E0F0E44B
:100920008B019C011F73222733270E0F1F1FAB0162
:10093000BC01AEE07695679557954795AA95D1F796
:100940005F7366277727EF01C40FD51F81E0F81288
:1009500004C088E191E20E946404C8010E9464041A
:10096000CE010E94640481E0F8120DC080E090EC9A
:100970000E94640488E190E2DF91CF911F910F9172
:10098000FF900C946404DF91CF911F910F91FF9021
:100990000895CF938091BE01883009F441C29091AF
:1009A000E601923039F491E09093EC018093D60106
:1009B00083E038C09091E701913041F48093D601F3
:1009C00084E08093BE019093EC012EC08091E701FA
:1009D000823029F448E250E06DE270E00FC080916F
:1009E000E501813019F40E947E031EC08091E5016B
:1009F000823071F548E250E064E070E089E691E011
:100A00000E94BE1D69E671E0809111029091120270
:100A10000E948D1B81E08093EC018091BE01809348
:100A2000D60186E08093BE018091A9019091AA0130
:100A3000A091AB01B091AC01845D9E4FAF4FBF4F11
:100A40008093F3019093F401A093F501B093F60124
:100A50008091F901813009F082C09091F8019111E3
:100A600054C090910401913041F5109204018BE142
:100A700090E0909303018093020185E0809301014F
:100A80008091A9019091AA01A091AB01B091AC0114
:100A9000845D9E4FAF4FBF4F8093F3019093F4015D
:100AA000A093F501B093F60181E00E94540149E161
:100AB00060E971E08DE291E0B1C18093040186E8C4
:100AC00090E0909303018093020189E180930101FA
:100AD0008091A9019091AA01A091AB01B091AC01C4
:100AE000845D9E4FAF4FBF4F8093F3019093F4010D
:100AF000A093F501B093F60181E00E94540149E111
:100B000064E873E08FE291E089C190915001911106
:100B100014C0809350016091E1017091E2018091D5
:100B2000E3019091E40120E040E00E94830449E168
:100B300060E971E081E391E071C110925001609130
:100B4000DA017091DB018091DC019091DD0120E000
:100B500040E00E94830449E160E971E08CC080912B
:100B6000F901823009F05CC18091F8018F5F8093B8
:100B7000F8018091F801833010F01092F801809113
:100B8000F801813021F0823009F0F0C077C0399A45
:100B9000109204018BE190E0909303018093020195
:100BA00085E0809301018091C8019091C901A091D5
:100BB000CA01B091CB018093DA019093DB01A0933D
:100BC000DC01B093DD018091C8019091C901A09131
:100BD000CA01B091CB018093E1019093E201A0930F
:100BE000E301B093E4018091E8019091E901A091C3
:100BF000EA01B091EB018093B3019093B401A0930B
:100C0000B501B093B6016091DA017091DB0180917A
:100C1000DC019091DD0120E040E00E9483046091BE
:100C2000E8017091E9018091EA019091EB0120E0E7
:100C300041E00E948304109250011092EF01109243
:100C4000EE0181E00E9454018091A9019091AA01D6
:100C5000A091AB01B091AC01845D9E4FAF4FBF4FEF
:100C60008093F3019093F401A093F501B093F60102
:100C700049E164E873E083E391E0D0C0389AC1E0D1
:100C8000C093040186E890E09093030180930201F1
:100C900089E1809301018091C8019091C901A091DF
:100CA000CA01B091CB018093DA019093DB01A0934C
:100CB000DC01B093DD018091C8019091C901A09140
:100CC000CA01B091CB018093E1019093E201A0931E
:100CD000E301B093E4018091E8019091E901A091D2
:100CE000EA01B091EB018093B3019093B401A0931A
:100CF000B501B093B6016091E1017091E20180917C
:100D0000E3019091E40120E040E00E9483046091BF
:100D1000E8017091E9018091EA019091EB0120E0F6
:100D200041E00E948304C09350011092EF011092A1
:100D3000EE0181E00E9454018091A9019091AA01E5
:100D4000A091AB01B091AC01845D9E4FAF4FBF4FFE
:100D50008093F3019093F401A093F501B093F60111
:100D600049E164E873E085E391E058C0399841981F
:100D70003898409881E08093040186E890E0909351
:100D800003018093020189E1809301018091B30105
:100D90009091B401A091B501B091B6018093E801A2
:100DA0009093E901A093EA01B093EB016091C8012F
:100DB0007091C9018091CA019091CB0120E040E07F
:100DC0000E9483046091E8017091E9018091EA0139
:100DD0009091EB0120E041E00E9483041092EF012A
:100DE0001092EE0181E00E9454018091A90190913E
:100DF000AA01A091AB01B091AC01845D9E4FAF4FB1
:100E0000BF4F8093F3019093F401A093F501B09349
:100E1000F60149E164E873E087E391E00E94D502BE
:100E20008091A801811102C0C0E001C0C2E08091A0
:100E300017028111CF5F80919201C81709F437C260
:100E400086958170809392019C2F9170981709F478
:100E5000FAC08091F801813021F4809150018823FB
:100E600061F08091F801823021F48091500181304D
:100E700021F08091F80181111AC2809108029091AD
:100E80000902A0910A02B0910B0281389F49A54D39
:100E9000B10508F4CFC08091F801813009F5809147
:100EA000DA019091DB01A091DC01B091DD0120918C
:100EB000020130910301821B930BA109B1098093B8
:100EC000DA019093DB01A093DC01B093DD01809106
:100ED000EE019091EF0120910101821B9109F9C06F
:100EE0008091F8018230B9F58091E8019091E90193
:100EF000A091EA01B091EB014091020150910301F0
:100F000060E070E0841B950BA60BB70B8093E801A3
:100F10009093E901A093EA01B093EB018091E10184
:100F20009091E201A091E301B091E401841B950B43
:100F3000A60BB70B8093E1019093E201A093E3012C
:100F4000B093E4018091EE019091EF0120910101B5
:100F5000821B910906C18091BE01883071F5809194
:100F6000C8019091C901A091CA01B091CB014B97E2
:100F7000A109B1098093C8019093C901A093CA0146
:100F8000B093CB016091C8017091C9018091CA01F1
:100F90009091CB0120E040E00E9483044091C80181
:100FA0005091C9016091CA017091CB0180E090E03D
:100FB0000E94F41DF999FECF63C18091E8019091E0
:100FC000E901A091EA01B091EB0140910201509139
:100FD000030160E070E0841B950BA60BB70B8093B8
:100FE000E8019093E901A093EA01B093EB018091AD
:100FF000C8019091C901A091CA01B091CB01841B95
:10100000950BA60BB70B8093C8019093C901A093D1
:10101000CA01B093CB018091080290910902A0917E
:101020000A02B0910B0220910101821B9109A109D2
:10103000B10912C181E00E94540149E164E873E002
:101040008DE391E032C18091F801813021F48091EB
:101050005001882361F08091F801823021F4809161
:101060005001813021F08091F801811120C18091DF
:10107000080290910902A0910A02B0910B02803BF4
:10108000964FAA4DB10508F008C18091F801813052
:1010900069F58091DA019091DB01A091DC01B091BA
:1010A000DD012091020130910301820F931FA11DE8
:1010B000B11D8093DA019093DB01A093DC01B09322
:1010C000DD018091EE019091EF0120910101820FED
:1010D000911D9093EF018093EE016091DA01709180
:1010E000DB018091DC019091DD01C6C08091F801A7
:1010F000823009F043C08091E8019091E901A0910C
:10110000EA01B091EB01409102015091030160E0CE
:1011100070E0840F951FA61FB71F8093E80190937E
:10112000E901A093EA01B093EB018091E101909174
:10113000E201A091E301B091E401840F951FA61F85
:10114000B71F8093E1019093E201A093E301B09374
:10115000E4018091EE019091EF0120910101820F55
:10116000911D9093EF018093EE016091E1017091E8
:10117000E2018091E3019091E4017EC08091BE0183
:10118000883071F58091C8019091C901A091CA0180
:10119000B091CB014B96A11DB11D8093C8019093D6
:1011A000C901A093CA01B093CB016091C8017091AD
:1011B000C9018091CA019091CB0120E040E00E94DA
:1011C00083044091C8015091C9016091CA01709196
:1011D000CB0180E090E00E94F41DF999FECF50C051
:1011E0008091E8019091E901A091EA01B091EB01B1
:1011F000409102015091030160E070E0840F951F5F
:10120000A61FB71F8093E8019093E901A093EA011C
:10121000B093EB018091C8019091C901A091CA01DE
:10122000B091CB01840F951FA61FB71F8093C801F3
:101230009093C901A093CA01B093CB018091080299
:1012400090910902A0910A02B0910B022091010134
:10125000820F911DA11DB11D809308029093090278
:10126000A0930A02B0930B026091C8017091C9016A
:101270008091CA019091CB0120E040E00E9483045C
:101280006091E8017091E9018091EA019091EB0190
:1012900020E041E00E9483040AC081E00E945401E2
:1012A00049E164E873E089E391E00E94D502C093CC
:1012B0009201CF910895909164009B7F9093640078
:1012C000813019F488E198E202C088E190E20E943E
:1012D00064048091640084608093640008951F9288
:1012E0000F920FB60F9211242F933F934F935F935A
:1012F0006F937F938F939F93AF93BF93EF93FF93DE
:101300004091AF015091B0016091B1017091B20173
:1013100080910D0290910E02A0910F02B0911002E7
:1013200084179507A607B707A8F44091AF0150911D
:10133000B0016091B1017091B2018091FE01909174
:10134000FF01A0910002B0910102481759076A07F6
:101350007B0720F080914E01813011F42E9A01C05C
:101360002E984091AF015091B0016091B101709100
:10137000B2018091130290911402A0911502B091D4
:101380001602481759076A077B07F0F44091AF012E
:101390005091B0016091B1017091B2018091C4018E
:1013A0009091C501A091C601B091C701841795071E
:1013B000A607B70748F481E00E945B0980914D01C0
:1013C000813029F42F9A04C080E00E945B092F9895
:1013D0008091F801882369F08091F801813019F437
:1013E000419A409806C08091F801823011F4409AE9
:1013F000419880E00E9454018091AF019091B0012A
:10140000A091B101B091B2010196A11DB11D8093CF
:10141000AF019093B001A093B101B093B201FF91DD
:10142000EF91BF91AF919F918F917F916F915F915C
:101430004F913F912F910F900FBE0F901F901895D5
:101440009B01AC0169EB7DE886E090E00E94E51924
:101450006093CE017093CF018093D0019093D1011E
:1014600008951092B9008AE08093B80084E08093D8
:10147000BC000895CF93F89481E884BDC1E0C5BD58
:101480008AE0809381001092800083E690E0909340
:1014900089008093880082E080936F008093B00081
:1014A00083E08093B100809170008260809370002F
:1014B00089EF8093B300569A269A279A39984198D3
:1014C000389840983C9A449A3D9A459A53985B9A2A
:1014D00054985C9A52985A9A55985D9A2098289AEE
:1014E00057985F9A3B98439A84B18E6284B989E594
:1014F0008CBD8DB58EB5C093B701C093EC01C09380
:10150000C3011092AF011092B0011092B10110927C
:10151000B20180E090E00E94D61D6093C8017093F4
:10152000C9018093CA019093CB0182E99BECAFE79C
:10153000B4E08093E8019093E901A093EA01B093AD
:10154000EB0180EE99E8A6EDB0E08093080290935D
:101550000902A0930A02B0930B026091C801709136
:10156000C9018091CA019091CB0121E040E00E9425
:1015700083046091C8017091C9018091CA01909162
:10158000CB0120E040E00E9483046091E80170916B
:10159000E9018091EA019091EB0120E041E00E9495
:1015A000830488E592E09093D9018093D80188E97B
:1015B00099E2ACE5BFE08093CE019093CF01A09378
:1015C000D001B093D1011092F8011092F7012E9A38
:1015D00087E590E00E94CE1D80930C02682F80EB7F
:1015E00094E070E00E94091A7093B9016093B80109
:1015F00086E590E00E94CE1D811103C0C093BE011C
:1016000002C01092BE018091E001813031F49091CE
:101610000202911102C08093BE01339906C088E096
:101620008093BE0181E08093EC012F985E9A2E9802
:101630000E94310A88EE93E0EFECF7E03197F1F782
:1016400000C000000197C1F780916400846080931E
:1016500064007894CF91089584EA8093BC008091CF
:10166000BC0087FFFCCF089584E98093BC000895F7
:101670008093BB0084E88093BC008091BC0087FF0E
:10168000FCCF089584EC8093BC008091BC0087FF60
:10169000FCCF8091BB00089584E88093BC008091CA
:1016A000BC0087FFFCCF8091BB0008958091B900FA
:1016B000887F0895CF93DF931F92CDB7DEB789E27D
:1016C00090E00E944B1A809311029093120219E24B
:1016D000DC01212F1D922A95E9F7809393019093C5
:1016E000940189E290E00E944B1A8093DE0190936E
:1016F000DF01DC011D921A95E9F70E943A0A8091F8
:10170000BE016091D8017091D90146E1883019F489
:101710008BE391E002C08FE391E00E94D502B5E136
:101720006B2EB1E07B2E15E0A12E07E0B02E04E079
:10173000CC24CA94DC2C760113E080EB882E84E064
:10174000982EF8948091AF019091B001A091B101D1
:10175000B091B2018093A9019093AA01A093AB012B
:10176000B093AC0178942091BE01243009F498C55F
:1017700050F42130A9F008F4F8C0223009F4D8C39D
:101780002330F9F6E1C4263009F459C708F4D5C668
:10179000273011F40C94D914283099F60C94AB1915
:1017A0002093AE0129830E94C9048091EC01298114
:1017B0008730B1F18C3009F49BC0813009F0C1CF82
:1017C00010924D0110924F0110924E019091020221
:1017D000913009F091C14091A9015091AA01609105
:1017E000AB017091AC014E5F5F4F6F4F7F4F4093E5
:1017F000C4015093C5016093C6017093C701C092A4
:101800001302D0921402E0921502F0921602C092D6
:10181000FA01D092FB01E092FC01F092FD01DBC4E1
:101820008091080290910902A0910A02B0910B02E6
:10183000813B964FAA4DB10568F4809108029091C2
:101840000902A0910A02B0910B0280389F49A54D70
:10185000B10538F410924D0110924F0110924E01D3
:1018600006C020934D0120934F0120934E0180919B
:101870000202811134C08CE08093EC018091A901B7
:101880009091AA01A091AB01B091AC018093FA01B3
:101890009093FB01A093FC01B093FD014091A9013D
:1018A0005091AA016091AB017091AC014C5E5F4F09
:1018B0006F4F7F4F4093FE015093FF0160930002F2
:1018C000709301024091A9015091AA016091AB016E
:1018D0007091AC014D5F5F4F6F4F7F4FB6C4C092A8
:1018E0001302D0921402E0921502F092160229CF50
:1018F00010924D0110924F018091080290910902BF
:10190000A0910A02B0910B02813B964FAA4DB105FE
:1019100068F48091080290910902A0910A02B091A6
:101920000B0280389F49A54DB10518F410924E0165
:1019300002C020934E014091A9015091AA016091EB
:10194000AB017091AC018091FA019091FB01A091E3
:10195000FC01B091FD01481759076A077B0708F49D
:10196000F0CEF1E0F093EC01ECCE1092AE010E94CB
:10197000C9048091EC01833009F444C130F4813012
:1019800059F0823009F0DDCEBAC0843009F4BDC10F
:101990008C3009F0D6CE99C210924D0110924F01B1
:1019A00010924E018091A9019091AA01A091AB01E2
:1019B000B091AC018093FE019093FF01A0930002CF
:1019C000B093010280910202813061F49091E001B4
:1019D000911108C08093B70122E02093EC0180931D
:1019E000C3017CC08091E001813009F064C0909116
:1019F0000202911160C08093B7011093EC018093B3
:101A0000C3014091A9015091AA016091AB0170916D
:101A1000AC012091B8013091B901C901880F991F1B
:101A2000820F931F480F591F611D711D4093FA01CA
:101A30005093FB016093FC017093FD018091A9011B
:101A40009091AA01A091AB01B091AC010296A11DA9
:101A5000B11D8093C4019093C501A093C601B093BA
:101A6000C701DB01CA010396A11DB11D80931302BA
:101A700090931402A0931502B09316028091A901CD
:101A80009091AA01A091AB01B091AC0180930D029D
:101A900090930E02A0930F02B09310024C5E5F4F22
:101AA0006F4F7F4F4093FE015093FF016093000200
:101AB0007093010246CE809102028130E1F4809160
:101AC000E0018130C1F48091C3018130A1F48093A1
:101AD000B70132E03093EC011093C3014091A901AA
:101AE0005091AA016091AB017091AC018091B80155
:101AF0009091B90197CF81E08093EC0122CE809143
:101B0000080290910902A0910A02B0910B02813B58
:101B1000964FAA4DB10568F4809108029091090290
:101B2000A0910A02B0910B0280389F49A54DB105E2
:101B300038F410924D0110924F0110924E0107C0DF
:101B400021E020934D0120934F0120934E014091BD
:101B5000A9015091AA016091AB017091AC018091F3
:101B6000FA019091FB01A091FC01B091FD01841755
:101B70009507A607B707C8F532E03093B701009381
:101B8000EC014091A9015091AA016091AB017091C3
:101B9000AC018091B8019091B901480F591F611DA6
:101BA000711D4093FA015093FB016093FC01709307
:101BB000FD018091A9019091AA01A091AB01B09182
:101BC000AC0180930D0290930E02A0930F02B0938C
:101BD00010024C5E5F4F6F4F7F4F4093FE0150935A
:101BE000FF0160930002709301028091E001813057
:101BF00009F0A7CD8091C301813009F0A2CD1093E7
:101C0000C3019FCD8091080290910902A0910A0220
:101C1000B0910B02813B964FAA4DB10568F48091BB
:101C2000080290910902A0910A02B0910B0280383B
:101C30009F49A54DB10538F410924D0110924F0106
:101C400010924E0107C021E020934D0120934F01D7
:101C500020934E014091A9015091AA016091AB01DE
:101C60007091AC018091FA019091FB01A091FC016F
:101C7000B091FD0184179507A607B707C0F510932B
:101C8000B7010093EC014091A9015091AA01609124
:101C9000AB017091AC018091B8019091B901480FEE
:101CA000591F611D711D4093FA015093FB01609310
:101CB000FC017093FD018091A9019091AA01A0916E
:101CC000AB01B091AC0180930D0290930E02A093F2
:101CD0000F02B09310024C5E5F4F6F4F7F4F4093E7
:101CE000FE015093FF016093000270930102809106
:101CF0000202813009F025CD8091C301813009F0C5
:101D000020CD32E03093C3011CCD4091A901509108
:101D1000AA016091AB017091AC018091FA019091A0
:101D2000FB01A091FC01B091FD0184179507A60766
:101D3000B70708F08AC08091C301823079F480939C
:101D4000EC014091A9015091AA016091AB01709101
:101D5000AC018091B8019091B90116C0833009F0AF
:101D60005CC01093EC014091A9015091AA016091CF
:101D7000AB017091AC012091B8013091B901C9015A
:101D8000880F991F820F931F480F591F611D711DE6
:101D90004093FA015093FB016093FC017093FD01A5
:101DA0008091A9019091AA01A091AB01B091AC01E1
:101DB0000296A11DB11D8093C4019093C501A0930B
:101DC000C601B093C701DB01CA010396A11DB11D75
:101DD0008093130290931402A0931502B0931602FD
:101DE0008091A9019091AA01A091AB01B091AC01A1
:101DF00080930D0290930E02A0930F02B0931002F5
:101E00004C5E5F4F6F4F7F4F4093FE015093FF0139
:101E1000609300027093010213C081E08093EC0193
:101E20004091A9015091AA016091AB017091AC0160
:101E30004093FA015093FB016093FC017093FD0104
:101E40000093B70191E09093C30180910202813029
:101E500061F48091B701833041F48091C3018130F6
:101E600021F4A2E0A093C3010EC08091E001813073
:101E700051F48091B701823031F48091C3018130F7
:101E800011F41093C30110924D0110924F01409133
:101E900008025091090260910A0270910B02413BC5
:101EA000564F6A4D710570F4409108025091090235
:101EB00060910A0270910B0240385F49654D7105CF
:101EC00008F075C510924E013CCC10924D01109255
:101ED0004F0121E020934E018091A9019091AA0128
:101EE000A091AB01B091AC014091FA015091FB017E
:101EF0006091FC017091FD01481759076A077B0743
:101F000010F42093EC014091A9015091AA01609135
:101F1000AB017091AC01445D5E4F6F4F7F4F4093BA
:101F2000F3015093F4016093F5017093F60109CC2D
:101F30008091EC01843038F4823008F0AEC08130FA
:101F400009F0FFCB04C0873008F0FBCBDDC0A091C7
:101F50009301B09194018091110290911202A817FF
:101F6000B90759F420919501211107C0EC91F0E0D7
:101F7000E85BFE4FE491E0939501E0919501EE233B
:101F800009F45AC08091B8019091B901E03819F074
:101F9000EF3F09F50EC04091A9015091AA0160914F
:101FA000AB017091AC019C01220F331F280F391F28
:101FB0000DC04091A9015091AA016091AB017091AF
:101FC000AC01B89E9001B99E300D1124420F531FF1
:101FD000611D711DD1C34091A9015091AA01609169
:101FE000AB017091AC01E7FF14C09C01220F331FBD
:101FF000280F391F420F531F611D711D4093FA01B5
:102000005093FB016093FC017093FD011093EC0170
:102010000FC0480F591F611D711D4093FA01509365
:10202000FB016093FC017093FD0132E03093EC0101
:10203000EE0FE093950185CB68E471E00E948D1B63
:1020400080911102909112029093940180939301D8
:1020500010929501A091F101B091F201B093D901D4
:10206000A093D80129EB3DE846E050E00E94DA1940
:102070006093CE017093CF018093D0019093D101F2
:102080006091180260930C02C40170E00E94091A6A
:102090007093B9016093B8011FC48091A901909118
:1020A000AA01A091AB01B091AC014091FA0150910D
:1020B000FB016091FC017091FD01481759076A0707
:1020C0007B07D0F44091A9015091AA016091AB0126
:1020D0007091AC018091B8019091B901480F591FDE
:1020E000611D711D4093FA015093FB016093FC0147
:1020F0007093FD010093EC0110924D0181E08093FB
:102100004F0180934E011DCB8091A9019091AA01AE
:10211000A091AB01B091AC014091FA015091FB014B
:102120006091FC017091FD01481759076A077B0710
:1021300018F491E09093EC0110924D0110924F0130
:10214000A1E0A0934E01FDCA8091EC01873009F413
:1021500045C0883009F482C0813009F0F2CA40914C
:10216000A9015091AA016091AB017091AC014E5F41
:102170005F4F6F4F7F4F4093C4015093C5016093F1
:10218000C6017093C701C0921302D0921402E0926C
:102190001502F0921602C092FA01D092FB01E09271
:1021A000FC01F092FD014091A9015091AA016091BA
:1021B000AB017091AC0140930D0250930E026093FD
:1021C0000F0270931002C092FE01D092FF01E092C4
:1021D0000002F0920102B092EC01B3CAB1E0B093F8
:1021E0004D01B0934F01B0934E01809102028130B6
:1021F00069F08091E001813049F08091E701813000
:1022000029F08091E501813009F09BCA88E0809334
:10221000EC014091A9015091AA016091AB0170912C
:10222000AC014C5E5F4F6F4F7F4F4093FA0150936C
:10223000FB016093FC017093FD014091A901509155
:10224000AA016091AB017091AC01409313025093CD
:102250001402609315027093160273CA10924D0116
:1022600010924F01E1E0E0934E018091A90190911D
:10227000AA01A091AB01B091AC014091FA0150913B
:10228000FB016091FC017091FD0184179507A60781
:10229000B70708F456CA10924E01E093EC0148C10A
:1022A0008091EC01893071F08A3009F441C08130AD
:1022B00009F03BC125E031E030939701209396016E
:1022C00039E0C6C382E090E00E944B1AFC01909373
:1022D00099018093980111821082A0919601B0918A
:1022E00097018C9180834091A9015091AA0160913E
:1022F000AB017091AC014056504F6F4F7F4F4093F0
:10230000FA015093FB016093FC017093FD018AE098
:102310008093EC016091D8017091D90140910C0239
:10232000CF010E94D5028091980190919901FAC045
:1023300084E190E00E944B1A8093DE019093DF01CC
:10234000DC0124E11D922A95E9F78091A901909181
:10235000AA01A091AB01B091AC014091FA0150915A
:10236000FB016091FC017091FD0184179507A607A0
:10237000B70708F0C4C05090E70131E0531217C00E
:1023800081E00E945401E0919601F0919701CF0104
:10239000019690939701809396018181811103C0EA
:1023A0005092EC01AFC089E08093EC01B7C050902F
:1023B000E50191E05912B2C081E00E945401E09120
:1023C0009601F091970180818B3409F46CC038F448
:1023D000813309F44BC0823309F0A0C04EC086356A
:1023E00009F458C08735D1F0833509F097C0409182
:1023F000A9015091AA016091AB017091AC014056C6
:10240000504F6F4F7F4F4093FA015093FB01609301
:10241000FC017093FD01A092BE0136C0A1E0A09323
:10242000EC018091AE018093BE0180910C021F925D
:102430008F937F926F928091DF018F938091DE0165
:102440008F930E94BD1B6091D8017091D90140917A
:102450000C028091DE019091DF010E94D5020F9065
:102460000F900F900F900F900F9058C01092EC01AA
:10247000B092BE0110929A0107C01092EC01B09286
:10248000BE01B1E0B0939A0146E164E873E083E3F2
:1024900091E042C05092EC018091AE018093BE0168
:1024A0000E9435033BC08091AE01811114C050924F
:1024B000AE015092EC015092BE01F999FECF60E05E
:1024C00086E590E00E94E61D40910C0264E873E00E
:1024D0008DE291E021C01092AE015092EC01109279
:1024E000BE01F999FECF61E086E590E00E94E61D0D
:1024F00040910C0264E873E083E491E00DC0E1E0F8
:10250000E093EC018091AE018093BE0140910C02FA
:1025100060E971E085E391E00E94D5028091DE01DF
:102520009091DF010E94E61A0CC9F1E0F093EC01F2
:102530008091AE018093BE0104C98091A901909160
:10254000AA01A091AB01B091AC014091FA01509168
:10255000FB016091FC017091FD0184179507A607AE
:10256000B707E8F58091E701813031F480910C02E2
:10257000883270F48F5F0AC08091E501813009F0E4
:10258000E0C880910C02863018F0815080930C02D4
:10259000E0910C026E2FC40170E00E94091A709342
:1025A000B9016093B8018091A9019091AA01A0910D
:1025B000AB01B091AC018056904FAF4FBF4F8093AD
:1025C000FA019093FB01A093FC01B093FD0160918F
:1025D000D8017091D9014E2F85E491E0B8C6F999E0
:1025E000FECF60910C0287E590E00E94E61D21E09D
:1025F0002093EC018091AE018093BE0180910C028A
:102600001F928F937F926F928091DF018F938091C1
:10261000DE018F930E94BD1B6091D8017091D9019A
:1026200040910C028091DE019091DF010E94D50261
:102630000F900F900F900F900F900F9082C8809185
:102640000202813061F08091E001813041F080919F
:10265000E701813021F08091E5018130D1F568E416
:1026600071E080911102909112020E948D1B809165
:102670001102909112029093940180939301109211
:1026800095014091A9015091AA016091AB0170910F
:10269000AC014093FE015093FF01609300027093E0
:1026A00001028091D6018093BE018091B701809391
:1026B000EC014091D2015091D3016091D40170910D
:1026C000D5014093FA015093FB016093FC01709394
:1026D000FD018091EC01843038F4823008F016C19D
:1026E000813009F02EC804C0873008F02AC843C1E1
:1026F000A0919301B09194012091110230911202A6
:10270000A217B30759F480919501811107C0EC918C
:10271000F0E0E85BFE4FE491E09395019091950124
:10272000992309F4BAC02091B8013091B9019038C9
:1027300021F09F3F09F03DC00EC04091A90150918A
:10274000AA016091AB017091AC01C901880F991F7A
:10275000820F931F0DC04091A9015091AA01609171
:10276000AB017091AC01B29EC001B39E900D1124DB
:10277000480F591F611D711D4093FA015093FB01D1
:102780006093FC017093FD01A092EC01CD010196D4
:1027900090939401809393011196EC91E11104C000
:1027A000109295010C94A10BF0E0E85BFE4FE491D0
:1027B00040CC4091A9015091AA016091AB01709168
:1027C000AC0197FF21C0F901EE0FFF1FE20FF31FCD
:1027D0004E0F5F1F611D711D4093FA015093FB0165
:1027E0006093FC017093FD011093EC012090A9010E
:1027F0003090AA014090AB015090AC0132E0230E22
:10280000311C411C511C1CC0420F531F611D711D06
:102810004093FA015093FB016093FC017093FD011A
:1028200082E08093EC012090A9013090AA014090B1
:10283000AB015090AC01A2E02A0E311C411C511C8E
:102840002092C4013092C5014092C6015092C70146
:102850004093130250931402609315027093160272
:102860004091A9015091AA016091AB017091AC0116
:1028700040930D0250930E0260930F02709310026A
:10288000C092FE01D092FF01E0920002F09201029C
:10289000990F909395010C94A10B68E471E0C90124
:1028A0000E948D1B809111029091120290939401CD
:1028B00080939301109295014091A9015091AA0132
:1028C0006091AB017091AC014093FE015093FF0108
:1028D00060930002709301028091D6018093BE0143
:1028E0008091B7018093EC014091D2015091D301C6
:1028F0006091D4017091D5014093FA015093FB018E
:102900006093FC017093FD010C94A10B8091A901CF
:102910009091AA01A091AB01B091AC014091FA0154
:102920005091FB016091FC017091FD01481759071E
:102930006A077B07D0F44091A9015091AA016091E8
:10294000AB017091AC018091B8019091B901480F31
:10295000591F611D711D4093FA015093FB01609353
:10296000FC017093FD010093EC01B1E0B0934D01C7
:10297000B0934F019BC38091A9019091AA01A091AE
:10298000AB01B091AC014091FA015091FB01609113
:10299000FC017091FD01481759076A077B0718F47D
:1029A000E1E0E093EC0110924D0110924F01F1E053
:1029B00006C28091EC01833009F405C230F4813005
:1029C00009F44AC008F078C10BC08B3009F472C317
:1029D0008C3009F46EC4843011F00C94A10B6AC2DF
:1029E0004091A9015091AA016091AB017091AC0195
:1029F00040930D0250930E0260930F0270931002E9
:102A0000C092FE01D092FF01E0920002F09201021A
:102A100010929B0110929C0110929D01C0929E0108
:102A2000D0929F01E092A001F092A101C092A20178
:102A3000D092A301E092A401F092A50121E020939D
:102A4000A60168E471E089E691E00E948D1B31E007
:102A50003093EC010C94A10B809102028130D9F5E6
:102A60008091E001811137C081E08093B70192E04D
:102A70009093EC018093C3014091A9015091AA0168
:102A80006091AB017091AC018091B8019091B90156
:102A9000480F591F611D711D4093FA015093FB01AE
:102AA0006093FC017093FD014091A9015091AA012E
:102AB0006091AB017091AC0148515C4F6F4F7F4FFB
:102AC00040939E0150939F016093A0017093A101D8
:102AD00080919C0150C08091E001813009F04DC08F
:102AE00090910202911149C08093B7011093EC01BB
:102AF0008093C3014091A9015091AA016091AB015B
:102B00007091AC012091B8013091B901C901880FD1
:102B1000991F820F931F480F591F611D711D40930C
:102B2000FA015093FB016093FC017093FD01409109
:102B3000A9015091AA016091AB017091AC0148517B
:102B40005C4F6F4F7F4F40939E0150939F01609366
:102B5000A0017093A10120919C0180E890E0022ED9
:102B600002C0959587950A94E2F790919B01980F82
:102B700090939B01822F8F5F56C08091020281301B
:102B800009F058C08091E001813009F053C0809174
:102B9000C301813009F04EC08093B701A2E0A09339
:102BA000EC011093C3014091A9015091AA016091D9
:102BB000AB017091AC018091B8019091B901480FBF
:102BC000591F611D711D4093FA015093FB016093E1
:102BD000FC017093FD014091A9015091AA016091FF
:102BE000AB017091AC0148515C4F6F4F7F4F4093E8
:102BF0009E0150939F016093A0017093A1014091A9
:102C00009C01242F30E02F5F3F4F80E890E002C00E
:102C1000959587952A95E2F790919B01980F90934F
:102C20009B01842F8E5F80939C01893018F08BE08C
:102C30008093C3018091A9019091AA01A091AB0159
:102C4000B091AC0140919E0150919F016091A00113
:102C50007091A101481759076A077B0720F48091FA
:102C60009C0181111DC08091A9019091AA01A091A0
:102C7000AB01B091AC014091A2015091A3016091D0
:102C8000A4017091A501481759076A077B0758F4FA
:102C900080919C01811107C08091A601811103C020
:102CA0008BE08093EC018091E701813009F0F9C15C
:102CB0008CE08093EC01F5C18091A9019091AA016B
:102CC000A091AB01B091AC014091FA015091FB0190
:102CD0006091FC017091FD01481759076A077B0755
:102CE000E8F4E2E0E093B7010093EC014091A90120
:102CF0005091AA016091AB017091AC018091B80133
:102D00009091B901480F591F611D711D4093FA013F
:102D10005093FB016093FC017093FD018091E001F1
:102D2000813009F047C08091C301813009F042C071
:102D30001093C3014091A9015091AA016091AB0188
:102D40007091AC0148515C4F6F4F7F4F40939E0193
:102D500050939F016093A0017093A1014091A9013C
:102D60005091AA016091AB017091AC014053584F52
:102D70006F4F7F4F4093A2015093A3016093A40132
:102D80007093A50120919C0180E890E0022E02C082
:102D9000959587950A94E2F790919B01980F9093EF
:102DA0009B01822F8F5F80939C01893018F08BE00C
:102DB0008093C30110924D01F1E0F0934F01F09325
:102DC0004E010C94A10B2090A9013090AA014090D3
:102DD000AB015090AC014091FA015091FB01609120
:102DE000FC017091FD014215530564057505E0F481
:102DF0008093B7010093EC014091A9015091AA0181
:102E00006091AB017091AC018091B8019091B901D2
:102E1000480F591F611D711D4093FA015093FB012A
:102E20006093FC017093FD01809102028130C9F52D
:102E30008091C3018130A9F522E02093C301409124
:102E4000A9015091AA016091AB017091AC01485168
:102E50005C4F6F4F7F4F40939E0150939F01609353
:102E6000A0017093A1014091A9015091AA01609124
:102E7000AB017091AC014053584F6F4F7F4F40935F
:102E8000A2015093A3016093A4017093A5018091C6
:102E90009C018F5F80939C01893018F08BE08093B8
:102EA000C30110924D0131E030934F0130934E0138
:102EB0000C94A10B8091A9019091AA01A091AB0162
:102EC000B091AC014091FA015091FB016091FC017D
:102ED0007091FD01481759076A077B0708F056C033
:102EE0008091C301823079F48093EC014091A90173
:102EF0005091AA016091AB017091AC018091B80131
:102F00009091B90115C0833001F58093EC01409197
:102F1000A9015091AA016091AB017091AC0120917F
:102F2000B8013091B901C901880F991F820F931F11
:102F3000480F591F611D711D4093FA015093FB0109
:102F40006093FC017093FD011CC08B3019F48093D9
:102F5000EC0117C081E08093EC014091A9015091F0
:102F6000AA016091AB017091AC014053584F6F4F73
:102F70007F4F4093A2015093A3016093A4017093EB
:102F8000A5010093B70191E09093C30180910202E3
:102F90008130B1F58091B701833091F58091C30103
:102FA000813071F5A2E0A093C3014091A901509135
:102FB000AA016091AB017091AC0148515C4F6F4F19
:102FC0007F4F40939E0150939F016093A0017093A7
:102FD000A1014091A9015091AA016091AB017091AA
:102FE000AC014053584F6F4F7F4F4093A201509315
:102FF000A3016093A4017093A50180919C0149C035
:103000008091E001813009F04CC08091B70182309D
:1030100009F047C08091C301813009F042C010938C
:10302000C3014091A9015091AA016091AB01709137
:10303000AC0148515C4F6F4F7F4F40939E015093BE
:103040009F016093A0017093A1014091A90150914B
:10305000AA016091AB017091AC014053584F6F4F82
:103060007F4F4093A2015093A3016093A4017093FA
:10307000A50120919C0180E890E0022E02C0959568
:1030800087950A94E2F790919B01980F90939B018A
:10309000822F8F5F80939C01893018F08BE08093A2
:1030A000C30110924D0110924F01B1E0B0934E0157
:1030B0000C94A10B20919C0180E890E0022E02C0AC
:1030C000959587950A94E2F790919B01980F9093BC
:1030D0009B01211133C067E471E089E691E00E9411
:1030E000821BE1E0E093A60110929B0110929C01EB
:1030F000E093EC014091A9015091AA016091AB01CC
:103100007091AC014053584F6F4F7F4F4093A201D5
:103110005093A3016093A4017093A50180919D0138
:103120008F5F80939D01883218F08CE08093EC01D2
:1031300046E164E873E089E491E009C1911148C077
:10314000283008F445C040919D014423B9F1415015
:1031500040939D0150E069E671E08091DE0190911D
:10316000DF010E94A41B6091DE017091DF0189E6FE
:1031700091E00E948D1B10929B0110929C01F1E046
:10318000F093A601F093EC014091A9015091AA019E
:103190006091AB017091AC014053584F6F4F7F4F1E
:1031A0004093A2015093A3016093A4017093A501E1
:1031B00046E160E971E081E391E0C9C010929B01B2
:1031C00010929C0121E02093A6012093EC0157C0AE
:1031D00080E243C0E82FF0E0E85BFE4FE491282F47
:1031E0002F5F9E1339C08093A70141E050E067EA4A
:1031F00071E089E691E00E94941B10929B0110926D
:103200009C011092A60131E03093EC014091A9019C
:103210005091AA016091AB017091AC014053584F9D
:103220006F4F7F4F4093A2015093A3016093A4017D
:103230007093A50180919D018F5F80939D018832DD
:1032400018F08CE08093EC0146E164E873E089E4D7
:1032500091E00E94D50206C0822F8B3508F4BACFC8
:103260008093A7018091A7018B3510F40C94A10BDA
:1032700010929B0110929C0181E08093EC0140919F
:10328000A9015091AA016091AB017091AC0140532A
:10329000584F6F4F7F4F4093A2015093A30160930B
:1032A000A4017093A50146E160E971E085E391E036
:1032B0004EC08091A6018130B1F440919D014150F2
:1032C00040939D0150E069E671E08091DE019091AC
:1032D000DF010E94A41B6091DE017091DF0189E68D
:1032E00091E00E948D1B80919A01811105C049E2F5
:1032F00050E06DE270E006C0813041F449E250E0F8
:1033000064E070E089E691E00E94DC1D4091A90133
:103310005091AA016091AB017091AC014093FE0104
:103320005093FF01609300027093010210924E01CE
:1033300091E09093EC018091AE018093BE01609189
:10334000D8017091D90140910C0289E691E00E9468
:10335000D5020C94A10B2093AE010E94C904809168
:10336000EC01813011F5C092FA01D092FB01E0929C
:10337000FC01F092FD0110924D0110924F0110924C
:103380004E014091A9015091AA016091AB01709149
:10339000AC014093FE015093FF01609300027093D3
:1033A00001021092F8010C94A10BA1E0A093EC0192
:1033B0000C94A10B0E943F1AA59F900DB49F900DF5
:1033C000A49F800D911D11240895DB018F939F937D
:1033D0000E94DA19BF91AF91A29F800D911DA39F0A
:1033E000900DB29F900D11240895AA1BBB1B51E1B3
:1033F00007C0AA1FBB1FA617B70710F0A61BB70B65
:10340000881F991F5A95A9F780959095BC01CD0109
:10341000089597FB072E16F4009407D077FD09D086
:103420000E94F51907FC05D03EF4909581959F4FB9
:103430000895709561957F4F0895A1E21A2EAA1BF9
:10344000BB1BFD010DC0AA1FBB1FEE1FFF1FA21754
:10345000B307E407F50720F0A21BB30BE40BF50B51
:10346000661F771F881F991F1A9469F760957095DA
:10347000809590959B01AC01BD01CF010895A29F5D
:10348000B001B39FC001A39F01D0B29F700D811DF9
:103490001124911D08950F931F93CF93DF938230D2
:1034A000910510F482E090E0E0911B02F0911C0283
:1034B00020E030E0C0E0D0E023C0408151814817D7
:1034C0005907A8F04817590761F482819381209722
:1034D00019F09B838A832EC090931C0280931B0259
:1034E00029C02115310529F04217530710F0A90111
:1034F00002C0BE01DF0102811381EF019A01F801D0
:103500003097D9F62115310509F1281B390B2430E4
:10351000310590F412968D919C9113976115710568
:1035200021F0FB019383828304C090931C0280935B
:103530001B02FD01329644C0FD01E20FF31F81938F
:103540009193225031092D933C933AC02091190256
:1035500030911A02232B41F420910E0130910F017A
:1035600030931A022093190220910C0130910D0121
:103570002115310541F42DB73EB74091100150910E
:103580001101241B350BE0911902F0911A02E21788
:10359000F307A0F42E1B3F0B2817390778F0AC0176
:1035A0004E5F5F4F2417350748F04E0F5F1F509353
:1035B0001A02409319028193919302C0E0E0F0E077
:1035C000CF01DF91CF911F910F910895EF92FF925C
:1035D0000F931F93CF93DF93009709F48EC0DC0104
:1035E000129713961C921E921297E0901B02F09075
:1035F0001C02E114F10489F42D913C911197280FDC
:10360000391F8091190290911A028217930789F548
:10361000B0931A02A093190270C0E70120E030E0D5
:1036200001C0EA01CA17DB0738F44A815B819E01B9
:1036300041155105B1F722C0AC0142505109FA01C0
:10364000D383C28300811181BC01600F711F6C178D
:103650007D0761F468817981600F711F6E5F7F4F14
:10366000718360836A817B81738362832115310555
:1036700029F4B0931C02A0931B023FC0F901B3834D
:10368000A283E90149915991C40FD51FAC17BD0719
:1036900071F4DC019E918E91840F951F02969183A7
:1036A000808312968D919C91139793838283A0E0DF
:1036B000B0E002C0D7017C01F701828193810097BD
:1036C000C9F7C701029620813181820F931F209193
:1036D000190230911A022817390779F4109729F442
:1036E00010921C0210921B0204C013961C921E9290
:1036F0001297F0921A02E0921902CDB7DEB7E6E017
:103700000C94C91EFB01DC010D900020E9F7119714
:1037100001900D920020E1F70895FB01DC0101907A
:103720000D920020E1F70895FB01DC010D900020CF
:10373000E9F711974150504028F0019000200D9278
:10374000C9F708951C920895FB01DC0141505040D7
:1037500048F001900D920020C9F701C01D92415020
:103760005040E0F70895DC016C9161566A3108F031
:10377000605E6F5B6D93C1F70895A0E1B0E0E3EC8C
:10378000FBE10C94AF1E0F89188D86E08C831A83A1
:1037900009838FEF9FE79E838D83AE01455E5F4F68
:1037A000588B4F87698D7A8DCE0101960E94E11B5F
:1037B000EF81F885E00FF11F10826096E4E00C9431
:1037C000CB1EACE0B0E0E7EEFBE10C94A11E7C0167
:1037D0006B018A01FC0117821682838181FFC7C1B8
:1037E00088248394912C8C0E9D1EF7019381F60101
:1037F00093FD859193FF81916F01882309F4B3C1F3
:10380000853239F493FD859193FF81916F01853263
:1038100029F4B70190E00E94171EE7CF712C312CDC
:1038200020E02032A8F48B3261F028F4803251F08D
:10383000833271F40BC08D3239F0803349F421604A
:1038400028C02260246025C0286023C0206121C0D8
:1038500027FD27C0382F30533A3078F426FF06C0B2
:10386000FAE07F9E300D1124732E13C08AE0389E3B
:10387000300D1124332E20620CC08E3221F426FD2F
:1038800072C1206406C08C3611F4206802C08836EC
:1038900041F4F60193FD859193FF81916F018111B0
:1038A000C0CF982F9554933018F09052933028F44D
:1038B0000C5F1F4FFFE3F9830DC0833631F0833770
:1038C00071F0833509F05EC023C0F80180818983DF
:1038D0000E5F1F4F66246394712C540115C028019C
:1038E000F2E04F0E511CF801A080B18026FF03C00A
:1038F000672D70E002C06FEF7FEFC5012C870E943B
:103900000C1E3C0182012C856FE7262E222218C056
:103910002801F2E04F0E511CF801A080B18026FF73
:1039200003C0672D70E002C06FEF7FEFC5012C87E9
:103930000E94011E3C012C8550E8252E222A82017E
:1039400023FC1CC006C0B70180E290E00E94171E55
:103950003A94832D90E068167906A8F30FC0F5011C
:1039600027FC859127FE81915F01B70190E00E94BD
:10397000171E31103A94F1E06F1A71086114710446
:1039800071F7EEC0843611F0893641F5F80127FF52
:1039900007C060817181828193810C5F1F4F08C0D5
:1039A00060817181882777FD8095982F0E5F1F4F6A
:1039B0004FE6642E622297FF09C09095809570951E
:1039C00061957F4F8F4F9F4FF0E86F2A2AE030E0DC
:1039D000A4010E94431EA82EA81844C0853731F4C4
:1039E0003FEEB32EB2222AE030E024C099EFB92E88
:1039F000B2228F36B9F020F4883509F0B4C00DC07A
:103A0000803721F0883709F0AEC002C020E1B22A29
:103A1000B4FE0BC084E0B82A08C024FF09C0E6E069
:103A2000BE2A06C028E030E005C020E130E002C038
:103A300020E132E0F801B7FE07C060817181828128
:103A400093810C5F1F4F06C06081718180E090E020
:103A50000E5F1F4FA4010E94431EA82EA8188FE7D7
:103A6000682E6B2066FE0BC0362D3E7FA71450F4E7
:103A700064FE0AC062FC08C0362D3E7E05C0BA2C2A
:103A8000362D03C0BA2C01C0B72C34FF0DC0FE0187
:103A9000EA0DF11D8081803311F4397E09C032FFB7
:103AA00006C0B394B39404C0832F867809F0B3940E
:103AB00033FD14C030FF0FC07A2CB31460F4730CC4
:103AC0007B18B32C08C0B70180E290E03C870E94CD
:103AD000171EB3943C85B314B0F304C0B31410F4B0
:103AE0003B1801C0312C34FF12C0B70180E390E0D5
:103AF0003C870E94171E3C8532FF1EC031FF03C069
:103B000088E590E002C088E790E0B7010CC0832F01
:103B1000867891F031FD02C080E201C08BE237FD72
:103B20008DE2B70190E00E94171E06C0B70180E346
:103B300090E00E94171E7A94A714C0F3AA94F4018F
:103B4000EA0DF11DB701808190E00E94171EA110BF
:103B5000F5CF06C0B70180E290E00E94171E3A94AC
:103B60003110F8CF42CEF7012681378102C02FEF06
:103B70003FEFC9012C96E2E10C94BD1EDC01CB01A4
:103B8000FC01F999FECF06C0F2BDE1BDF89A31966D
:103B900000B40D9241505040B8F70895F999FECF06
:103BA00092BD81BDF89A992780B50895A6E1B0E04D
:103BB00044E050E00C94C01DDC01CB0103C02D910A
:103BC0000E94E71D41505040D0F70895262FF999E3
:103BD000FECF1FBA92BD81BD20BD0FB6F894FA9AF0
:103BE000F99A0FBE01960895242F0E94E71D252FF4
:103BF0000E94E71D0C94FC1D0E94E61D272F0C94CB
:103C0000E71DFC010590615070400110D8F78095C8
:103C100090958E0F9F1F0895FC0161507040019098
:103C20000110D8F7809590958E0F9F1F08950F93E0
:103C30001F93CF93DF938C01EB018B8181FD03C038
:103C40000FEF1FEF1AC082FF0DC02E813F818C81C4
:103C50009D812817390764F4E881F9810193F9837C
:103C6000E88306C0E885F985802F0995892B41F7FF
:103C70008E819F8101969F838E83C801DF91CF91B2
:103C80001F910F910895FA01AA27283051F1203190
:103C900081F1E8946F936E7F6E5F7F4F8F4F9F4FE0
:103CA000AF4FB1E03ED0B4E03CD0670F781F891F22
:103CB0009A1FA11D680F791F8A1F911DA11D6A0FF0
:103CC000711D811D911DA11D20D009F468943F91A3
:103CD0002AE0269F11243019305D3193DEF6CF01A2
:103CE0000895462F4770405D4193B3E00FD0C9F768
:103CF000F6CF462F4F70405D4A3318F0495D31FDD5
:103D00004052419302D0A9F7EACFB4E0A695979527
:103D1000879577956795BA95C9F7009761057105FD
:103D200008959B01AC010A2E069457954795379547
:103D30002795BA95C9F7620F731F841F951FA01DA1
:103D400008952F923F924F925F926F927F928F923F
:103D50009F92AF92BF92CF92DF92EF92FF920F931A
:103D60001F93CF93DF93CDB7DEB7CA1BDB0B0FB624
:103D7000F894DEBF0FBECDBF09942A8839884888E1
:103D80005F846E847D848C849B84AA84B984C88477
:103D9000DF80EE80FD800C811B81AA81B981CE0F6E
:103DA000D11D0FB6F894DEBF0FBECDBFED01089553
:043DB000F894FFCFB5
:103DB400011986000153573132564B0000001D0291
:103DC40020002564522564002D2531695225322EA8
:103DD4003269002530327552253032750053004661
:103DE400005400520058004F00550043414C00431A
:0C3DF4004331004B004900200045000056
:00000001FF
